{"contracts/Polishing.sol":{"Polishing":{"abi":[{"inputs":[{"internalType":"address","name":"_stone","type":"address"},{"internalType":"address","name":"_tool","type":"address"}],"stateMutability":"nonpayable","type":"constructor"},{"inputs":[{"internalType":"address","name":"owner","type":"address"}],"name":"OwnableInvalidOwner","type":"error"},{"inputs":[{"internalType":"address","name":"account","type":"address"}],"name":"OwnableUnauthorizedAccount","type":"error"},{"anonymous":false,"inputs":[{"indexed":true,"internalType":"address","name":"previousOwner","type":"address"},{"indexed":true,"internalType":"address","name":"newOwner","type":"address"}],"name":"OwnershipTransferred","type":"event"},{"anonymous":false,"inputs":[{"indexed":true,"internalType":"address","name":"user","type":"address"},{"indexed":false,"internalType":"uint256","name":"stoneId","type":"uint256"},{"indexed":false,"internalType":"uint256","name":"toolId","type":"uint256"},{"indexed":false,"internalType":"bool","name":"upgraded","type":"bool"},{"indexed":false,"internalType":"uint8","name":"newGrade","type":"uint8"}],"name":"Polished","type":"event"},{"inputs":[],"name":"owner","outputs":[{"internalType":"address","name":"","type":"address"}],"stateMutability":"view","type":"function"},{"inputs":[{"internalType":"uint256","name":"stoneId","type":"uint256"},{"internalType":"uint256","name":"toolId","type":"uint256"}],"name":"polish","outputs":[],"stateMutability":"nonpayable","type":"function"},{"inputs":[],"name":"renounceOwnership","outputs":[],"stateMutability":"nonpayable","type":"function"},{"inputs":[{"internalType":"address","name":"_stone","type":"address"},{"internalType":"address","name":"_tool","type":"address"}],"name":"setContracts","outputs":[],"stateMutability":"nonpayable","type":"function"},{"inputs":[],"name":"stone","outputs":[{"internalType":"contract IStoneNFT","name":"","type":"address"}],"stateMutability":"view","type":"function"},{"inputs":[],"name":"tool","outputs":[{"internalType":"contract IToolNFT","name":"","type":"address"}],"stateMutability":"view","type":"function"},{"inputs":[{"internalType":"address","name":"newOwner","type":"address"}],"name":"transferOwnership","outputs":[],"stateMutability":"nonpayable","type":"function"}],"evm":{"bytecode":{"linkReferences":{},"object":"6080346100f257601f610a3f38819003918201601f19168301916001600160401b038311848410176100f75780849260409485528339810103126100f257610052602061004b8361010d565b920161010d565b33156100dc5760008054336001600160a01b0319821681178355604051949290916001600160a01b0316907f8be0079c531659141344cd1fd0a4f28419497f9722a3daafe3b4186f6b6457e09080a3600180546001600160a01b039283166001600160a01b0319918216179091556002805493909216921691909117905561091d90816101228239f35b631e4fbdf760e01b600052600060045260246000fd5b600080fd5b634e487b7160e01b600052604160045260246000fd5b51906001600160a01b03821682036100f25756fe608080604052600436101561001357600080fd5b600090813560e01c9081630167eb851461081957508063715018a6146107bf5780637d8521f3146101bd5780638da5cb5b14610196578063d8952a491461011f578063d9a969f8146100f65763f2fde38b1461006e57600080fd5b346100f35760203660031901126100f35761008761083e565b61008f6108be565b6001600160a01b031680156100df5781546001600160a01b03198116821783556001600160a01b03167f8be0079c531659141344cd1fd0a4f28419497f9722a3daafe3b4186f6b6457e08380a380f35b631e4fbdf760e01b82526004829052602482fd5b80fd5b50346100f357806003193601126100f3576002546040516001600160a01b039091168152602090f35b50346100f35760403660031901126100f35761013961083e565b6024356001600160a01b0381169190829003610192576101576108be565b60018060a01b03166bffffffffffffffffffffffff60a01b60015416176001556bffffffffffffffffffffffff60a01b600254161760025580f35b8280fd5b50346100f357806003193601126100f357546040516001600160a01b039091168152602090f35b50346100f35760403660031901126100f35760043560243560018060a01b03600154166040516331a9108f60e11b8152836004820152602081602481855afa9081156107b4578591610795575b50336001600160a01b039091160361075e576002546040516331a9108f60e11b8152600481018490526001600160a01b0390911690602081602481855afa9081156106ee57869161072f575b50336001600160a01b03909116036106f95760405163c8f3d54f60e01b815260048101859052608081602481865afa9081156106ee57869187918891610696575b506060602493946040519485809263d56de0ad60e01b82528a60048301525afa91821561053a5788938993610650575b50101561061457156105d65760ff169081600403600481116105c25780600a02600a810482036105a65780156105ba575b816005029160058304036105a657811561059d575b60ff83169384610575576032905b60058102908082046005149015171561056157810180911161054d57889190605f8111610545575b606460405160208101904282523360601b60408201528b60548201528a60748201524460948201526094815261037a60b482610859565b519020061095803b156101925760448392604051948593849263772d662960e11b84528d600485015260248401525af1801561053a57610522575b50600254879392916001600160a01b0390911690813b156104ba578491604483926040519788938492632415279560e21b84528c600485015260248401525af19384156105155785946104f6575b50509261044e575b5060ff92604051948552602085015260408401521660608201527fdf04a41135600095a1135d0a04c3608190d33a8c5ad197ed3becb39695fb963860803392a280f35b600381106104cd575b5060015485906001600160a01b0316803b156104c957818091604460405180948193630dcd637960e31b83528b600484015260ff8a1660248401525af180156104be576104a5575b5061040b565b816104af91610859565b6104ba57843861049f565b8480fd5b6040513d84823e3d90fd5b5080fd5b60019192500160ff81116104e2579038610457565b634e487b7160e01b85526011600452602485fd5b819294509061050491610859565b6105115782918638610403565b8580fd5b50604051903d90823e3d90fd5b87610531919892949398610859565b959091386103b5565b6040513d8a823e3d90fd5b50605f610343565b634e487b7160e01b89526011600452602489fd5b634e487b7160e01b8a52601160045260248afd5b6001850361058557601e9061031b565b6002850361059557600f9061031b565b60059061031b565b6001915061030d565b634e487b7160e01b88526011600452602488fd5b5060016102f8565b634e487b7160e01b87526011600452602487fd5b60405162461bcd60e51b8152602060048201526016602482015275546f6f6c20686173206e6f206475726162696c69747960501b6044820152606490fd5b60405162461bcd60e51b815260206004820152601460248201527353746f6e65206e6f7420706f6c69736861626c6560601b6044820152606490fd5b935091506060833d60601161068e575b8161066d60609383610859565b8101031261068a576020610680846108b0565b93015191386102c7565b8780fd5b3d9150610660565b925050506080813d6080116106e6575b816106b360809383610859565b81010312610511576106c4816108b0565b90602081015192606060408301519201518015150361068a5792906060610297565b3d91506106a6565b6040513d88823e3d90fd5b60405162461bcd60e51b815260206004820152600e60248201526d2737ba103a37b7b61037bbb732b960911b6044820152606490fd5b610751915060203d602011610757575b6107498183610859565b810190610891565b38610256565b503d61073f565b60405162461bcd60e51b815260206004820152600f60248201526e2737ba1039ba37b7329037bbb732b960891b6044820152606490fd5b6107ae915060203d602011610757576107498183610859565b3861020a565b6040513d87823e3d90fd5b50346100f357806003193601126100f3576107d86108be565b80546001600160a01b03198116825581906001600160a01b03167f8be0079c531659141344cd1fd0a4f28419497f9722a3daafe3b4186f6b6457e08280a380f35b9050346104c957816003193601126104c9576001546001600160a01b03168152602090f35b600435906001600160a01b038216820361085457565b600080fd5b90601f8019910116810190811067ffffffffffffffff82111761087b57604052565b634e487b7160e01b600052604160045260246000fd5b9081602091031261085457516001600160a01b03811681036108545790565b519060ff8216820361085457565b6000546001600160a01b031633036108d257565b63118cdaa760e01b6000523360045260246000fdfea26469706673582212207baa984ef3f878e8b038f606e3526bd7df49495fb04ac15b12384c8a8a5c076e64736f6c634300081c0033","opcodes":"PUSH1 0x80 CALLVALUE PUSH2 0xF2 JUMPI PUSH1 0x1F PUSH2 0xA3F CODESIZE DUP2 SWAP1 SUB SWAP2 DUP3 ADD PUSH1 0x1F NOT AND DUP4 ADD SWAP2 PUSH1 0x1 PUSH1 0x1 PUSH1 0x40 SHL SUB DUP4 GT DUP5 DUP5 LT OR PUSH2 0xF7 JUMPI DUP1 DUP5 SWAP3 PUSH1 0x40 SWAP5 DUP6 MSTORE DUP4 CODECOPY DUP2 ADD SUB SLT PUSH2 0xF2 JUMPI PUSH2 0x52 PUSH1 0x20 PUSH2 0x4B DUP4 PUSH2 0x10D JUMP JUMPDEST SWAP3 ADD PUSH2 0x10D JUMP JUMPDEST CALLER ISZERO PUSH2 0xDC JUMPI PUSH1 0x0 DUP1 SLOAD CALLER PUSH1 0x1 PUSH1 0x1 PUSH1 0xA0 SHL SUB NOT DUP3 AND DUP2 OR DUP4 SSTORE PUSH1 0x40 MLOAD SWAP5 SWAP3 SWAP1 SWAP2 PUSH1 0x1 PUSH1 0x1 PUSH1 0xA0 SHL SUB AND SWAP1 PUSH32 0x8BE0079C531659141344CD1FD0A4F28419497F9722A3DAAFE3B4186F6B6457E0 SWAP1 DUP1 LOG3 PUSH1 0x1 DUP1 SLOAD PUSH1 0x1 PUSH1 0x1 PUSH1 0xA0 SHL SUB SWAP3 DUP4 AND PUSH1 0x1 PUSH1 0x1 PUSH1 0xA0 SHL SUB NOT SWAP2 DUP3 AND OR SWAP1 SWAP2 SSTORE PUSH1 0x2 DUP1 SLOAD SWAP4 SWAP1 SWAP3 AND SWAP3 AND SWAP2 SWAP1 SWAP2 OR SWAP1 SSTORE PUSH2 0x91D SWAP1 DUP2 PUSH2 0x122 DUP3 CODECOPY RETURN JUMPDEST PUSH4 0x1E4FBDF7 PUSH1 0xE0 SHL PUSH1 0x0 MSTORE PUSH1 0x0 PUSH1 0x4 MSTORE PUSH1 0x24 PUSH1 0x0 REVERT JUMPDEST PUSH1 0x0 DUP1 REVERT JUMPDEST PUSH4 0x4E487B71 PUSH1 0xE0 SHL PUSH1 0x0 MSTORE PUSH1 0x41 PUSH1 0x4 MSTORE PUSH1 0x24 PUSH1 0x0 REVERT JUMPDEST MLOAD SWAP1 PUSH1 0x1 PUSH1 0x1 PUSH1 0xA0 SHL SUB DUP3 AND DUP3 SUB PUSH2 0xF2 JUMPI JUMP INVALID PUSH1 0x80 DUP1 PUSH1 0x40 MSTORE PUSH1 0x4 CALLDATASIZE LT ISZERO PUSH2 0x13 JUMPI PUSH1 0x0 DUP1 REVERT JUMPDEST PUSH1 0x0 SWAP1 DUP2 CALLDATALOAD PUSH1 0xE0 SHR SWAP1 DUP2 PUSH4 0x167EB85 EQ PUSH2 0x819 JUMPI POP DUP1 PUSH4 0x715018A6 EQ PUSH2 0x7BF JUMPI DUP1 PUSH4 0x7D8521F3 EQ PUSH2 0x1BD JUMPI DUP1 PUSH4 0x8DA5CB5B EQ PUSH2 0x196 JUMPI DUP1 PUSH4 0xD8952A49 EQ PUSH2 0x11F JUMPI DUP1 PUSH4 0xD9A969F8 EQ PUSH2 0xF6 JUMPI PUSH4 0xF2FDE38B EQ PUSH2 0x6E JUMPI PUSH1 0x0 DUP1 REVERT JUMPDEST CALLVALUE PUSH2 0xF3 JUMPI PUSH1 0x20 CALLDATASIZE PUSH1 0x3 NOT ADD SLT PUSH2 0xF3 JUMPI PUSH2 0x87 PUSH2 0x83E JUMP JUMPDEST PUSH2 0x8F PUSH2 0x8BE JUMP JUMPDEST PUSH1 0x1 PUSH1 0x1 PUSH1 0xA0 SHL SUB AND DUP1 ISZERO PUSH2 0xDF JUMPI DUP2 SLOAD PUSH1 0x1 PUSH1 0x1 PUSH1 0xA0 SHL SUB NOT DUP2 AND DUP3 OR DUP4 SSTORE PUSH1 0x1 PUSH1 0x1 PUSH1 0xA0 SHL SUB AND PUSH32 0x8BE0079C531659141344CD1FD0A4F28419497F9722A3DAAFE3B4186F6B6457E0 DUP4 DUP1 LOG3 DUP1 RETURN JUMPDEST PUSH4 0x1E4FBDF7 PUSH1 0xE0 SHL DUP3 MSTORE PUSH1 0x4 DUP3 SWAP1 MSTORE PUSH1 0x24 DUP3 REVERT JUMPDEST DUP1 REVERT JUMPDEST POP CALLVALUE PUSH2 0xF3 JUMPI DUP1 PUSH1 0x3 NOT CALLDATASIZE ADD SLT PUSH2 0xF3 JUMPI PUSH1 0x2 SLOAD PUSH1 0x40 MLOAD PUSH1 0x1 PUSH1 0x1 PUSH1 0xA0 SHL SUB SWAP1 SWAP2 AND DUP2 MSTORE PUSH1 0x20 SWAP1 RETURN JUMPDEST POP CALLVALUE PUSH2 0xF3 JUMPI PUSH1 0x40 CALLDATASIZE PUSH1 0x3 NOT ADD SLT PUSH2 0xF3 JUMPI PUSH2 0x139 PUSH2 0x83E JUMP JUMPDEST PUSH1 0x24 CALLDATALOAD PUSH1 0x1 PUSH1 0x1 PUSH1 0xA0 SHL SUB DUP2 AND SWAP2 SWAP1 DUP3 SWAP1 SUB PUSH2 0x192 JUMPI PUSH2 0x157 PUSH2 0x8BE JUMP JUMPDEST PUSH1 0x1 DUP1 PUSH1 0xA0 SHL SUB AND PUSH12 0xFFFFFFFFFFFFFFFFFFFFFFFF PUSH1 0xA0 SHL PUSH1 0x1 SLOAD AND OR PUSH1 0x1 SSTORE PUSH12 0xFFFFFFFFFFFFFFFFFFFFFFFF PUSH1 0xA0 SHL PUSH1 0x2 SLOAD AND OR PUSH1 0x2 SSTORE DUP1 RETURN JUMPDEST DUP3 DUP1 REVERT JUMPDEST POP CALLVALUE PUSH2 0xF3 JUMPI DUP1 PUSH1 0x3 NOT CALLDATASIZE ADD SLT PUSH2 0xF3 JUMPI SLOAD PUSH1 0x40 MLOAD PUSH1 0x1 PUSH1 0x1 PUSH1 0xA0 SHL SUB SWAP1 SWAP2 AND DUP2 MSTORE PUSH1 0x20 SWAP1 RETURN JUMPDEST POP CALLVALUE PUSH2 0xF3 JUMPI PUSH1 0x40 CALLDATASIZE PUSH1 0x3 NOT ADD SLT PUSH2 0xF3 JUMPI PUSH1 0x4 CALLDATALOAD PUSH1 0x24 CALLDATALOAD PUSH1 0x1 DUP1 PUSH1 0xA0 SHL SUB PUSH1 0x1 SLOAD AND PUSH1 0x40 MLOAD PUSH4 0x31A9108F PUSH1 0xE1 SHL DUP2 MSTORE DUP4 PUSH1 0x4 DUP3 ADD MSTORE PUSH1 0x20 DUP2 PUSH1 0x24 DUP2 DUP6 GAS STATICCALL SWAP1 DUP2 ISZERO PUSH2 0x7B4 JUMPI DUP6 SWAP2 PUSH2 0x795 JUMPI JUMPDEST POP CALLER PUSH1 0x1 PUSH1 0x1 PUSH1 0xA0 SHL SUB SWAP1 SWAP2 AND SUB PUSH2 0x75E JUMPI PUSH1 0x2 SLOAD PUSH1 0x40 MLOAD PUSH4 0x31A9108F PUSH1 0xE1 SHL DUP2 MSTORE PUSH1 0x4 DUP2 ADD DUP5 SWAP1 MSTORE PUSH1 0x1 PUSH1 0x1 PUSH1 0xA0 SHL SUB SWAP1 SWAP2 AND SWAP1 PUSH1 0x20 DUP2 PUSH1 0x24 DUP2 DUP6 GAS STATICCALL SWAP1 DUP2 ISZERO PUSH2 0x6EE JUMPI DUP7 SWAP2 PUSH2 0x72F JUMPI JUMPDEST POP CALLER PUSH1 0x1 PUSH1 0x1 PUSH1 0xA0 SHL SUB SWAP1 SWAP2 AND SUB PUSH2 0x6F9 JUMPI PUSH1 0x40 MLOAD PUSH4 0xC8F3D54F PUSH1 0xE0 SHL DUP2 MSTORE PUSH1 0x4 DUP2 ADD DUP6 SWAP1 MSTORE PUSH1 0x80 DUP2 PUSH1 0x24 DUP2 DUP7 GAS STATICCALL SWAP1 DUP2 ISZERO PUSH2 0x6EE JUMPI DUP7 SWAP2 DUP8 SWAP2 DUP9 SWAP2 PUSH2 0x696 JUMPI JUMPDEST POP PUSH1 0x60 PUSH1 0x24 SWAP4 SWAP5 PUSH1 0x40 MLOAD SWAP5 DUP6 DUP1 SWAP3 PUSH4 0xD56DE0AD PUSH1 0xE0 SHL DUP3 MSTORE DUP11 PUSH1 0x4 DUP4 ADD MSTORE GAS STATICCALL SWAP2 DUP3 ISZERO PUSH2 0x53A JUMPI DUP9 SWAP4 DUP10 SWAP4 PUSH2 0x650 JUMPI JUMPDEST POP LT ISZERO PUSH2 0x614 JUMPI ISZERO PUSH2 0x5D6 JUMPI PUSH1 0xFF AND SWAP1 DUP2 PUSH1 0x4 SUB PUSH1 0x4 DUP2 GT PUSH2 0x5C2 JUMPI DUP1 PUSH1 0xA MUL PUSH1 0xA DUP2 DIV DUP3 SUB PUSH2 0x5A6 JUMPI DUP1 ISZERO PUSH2 0x5BA JUMPI JUMPDEST DUP2 PUSH1 0x5 MUL SWAP2 PUSH1 0x5 DUP4 DIV SUB PUSH2 0x5A6 JUMPI DUP2 ISZERO PUSH2 0x59D JUMPI JUMPDEST PUSH1 0xFF DUP4 AND SWAP4 DUP5 PUSH2 0x575 JUMPI PUSH1 0x32 SWAP1 JUMPDEST PUSH1 0x5 DUP2 MUL SWAP1 DUP1 DUP3 DIV PUSH1 0x5 EQ SWAP1 ISZERO OR ISZERO PUSH2 0x561 JUMPI DUP2 ADD DUP1 SWAP2 GT PUSH2 0x54D JUMPI DUP9 SWAP2 SWAP1 PUSH1 0x5F DUP2 GT PUSH2 0x545 JUMPI JUMPDEST PUSH1 0x64 PUSH1 0x40 MLOAD PUSH1 0x20 DUP2 ADD SWAP1 TIMESTAMP DUP3 MSTORE CALLER PUSH1 0x60 SHL PUSH1 0x40 DUP3 ADD MSTORE DUP12 PUSH1 0x54 DUP3 ADD MSTORE DUP11 PUSH1 0x74 DUP3 ADD MSTORE PREVRANDAO PUSH1 0x94 DUP3 ADD MSTORE PUSH1 0x94 DUP2 MSTORE PUSH2 0x37A PUSH1 0xB4 DUP3 PUSH2 0x859 JUMP JUMPDEST MLOAD SWAP1 KECCAK256 MOD LT SWAP6 DUP1 EXTCODESIZE ISZERO PUSH2 0x192 JUMPI PUSH1 0x44 DUP4 SWAP3 PUSH1 0x40 MLOAD SWAP5 DUP6 SWAP4 DUP5 SWAP3 PUSH4 0x772D6629 PUSH1 0xE1 SHL DUP5 MSTORE DUP14 PUSH1 0x4 DUP6 ADD MSTORE PUSH1 0x24 DUP5 ADD MSTORE GAS CALL DUP1 ISZERO PUSH2 0x53A JUMPI PUSH2 0x522 JUMPI JUMPDEST POP PUSH1 0x2 SLOAD DUP8 SWAP4 SWAP3 SWAP2 PUSH1 0x1 PUSH1 0x1 PUSH1 0xA0 SHL SUB SWAP1 SWAP2 AND SWAP1 DUP2 EXTCODESIZE ISZERO PUSH2 0x4BA JUMPI DUP5 SWAP2 PUSH1 0x44 DUP4 SWAP3 PUSH1 0x40 MLOAD SWAP8 DUP9 SWAP4 DUP5 SWAP3 PUSH4 0x24152795 PUSH1 0xE2 SHL DUP5 MSTORE DUP13 PUSH1 0x4 DUP6 ADD MSTORE PUSH1 0x24 DUP5 ADD MSTORE GAS CALL SWAP4 DUP5 ISZERO PUSH2 0x515 JUMPI DUP6 SWAP5 PUSH2 0x4F6 JUMPI JUMPDEST POP POP SWAP3 PUSH2 0x44E JUMPI JUMPDEST POP PUSH1 0xFF SWAP3 PUSH1 0x40 MLOAD SWAP5 DUP6 MSTORE PUSH1 0x20 DUP6 ADD MSTORE PUSH1 0x40 DUP5 ADD MSTORE AND PUSH1 0x60 DUP3 ADD MSTORE PUSH32 0xDF04A41135600095A1135D0A04C3608190D33A8C5AD197ED3BECB39695FB9638 PUSH1 0x80 CALLER SWAP3 LOG2 DUP1 RETURN JUMPDEST PUSH1 0x3 DUP2 LT PUSH2 0x4CD JUMPI JUMPDEST POP PUSH1 0x1 SLOAD DUP6 SWAP1 PUSH1 0x1 PUSH1 0x1 PUSH1 0xA0 SHL SUB AND DUP1 EXTCODESIZE ISZERO PUSH2 0x4C9 JUMPI DUP2 DUP1 SWAP2 PUSH1 0x44 PUSH1 0x40 MLOAD DUP1 SWAP5 DUP2 SWAP4 PUSH4 0xDCD6379 PUSH1 0xE3 SHL DUP4 MSTORE DUP12 PUSH1 0x4 DUP5 ADD MSTORE PUSH1 0xFF DUP11 AND PUSH1 0x24 DUP5 ADD MSTORE GAS CALL DUP1 ISZERO PUSH2 0x4BE JUMPI PUSH2 0x4A5 JUMPI JUMPDEST POP PUSH2 0x40B JUMP JUMPDEST DUP2 PUSH2 0x4AF SWAP2 PUSH2 0x859 JUMP JUMPDEST PUSH2 0x4BA JUMPI DUP5 CODESIZE PUSH2 0x49F JUMP JUMPDEST DUP5 DUP1 REVERT JUMPDEST PUSH1 0x40 MLOAD RETURNDATASIZE DUP5 DUP3 RETURNDATACOPY RETURNDATASIZE SWAP1 REVERT JUMPDEST POP DUP1 REVERT JUMPDEST PUSH1 0x1 SWAP2 SWAP3 POP ADD PUSH1 0xFF DUP2 GT PUSH2 0x4E2 JUMPI SWAP1 CODESIZE PUSH2 0x457 JUMP JUMPDEST PUSH4 0x4E487B71 PUSH1 0xE0 SHL DUP6 MSTORE PUSH1 0x11 PUSH1 0x4 MSTORE PUSH1 0x24 DUP6 REVERT JUMPDEST DUP2 SWAP3 SWAP5 POP SWAP1 PUSH2 0x504 SWAP2 PUSH2 0x859 JUMP JUMPDEST PUSH2 0x511 JUMPI DUP3 SWAP2 DUP7 CODESIZE PUSH2 0x403 JUMP JUMPDEST DUP6 DUP1 REVERT JUMPDEST POP PUSH1 0x40 MLOAD SWAP1 RETURNDATASIZE SWAP1 DUP3 RETURNDATACOPY RETURNDATASIZE SWAP1 REVERT JUMPDEST DUP8 PUSH2 0x531 SWAP2 SWAP9 SWAP3 SWAP5 SWAP4 SWAP9 PUSH2 0x859 JUMP JUMPDEST SWAP6 SWAP1 SWAP2 CODESIZE PUSH2 0x3B5 JUMP JUMPDEST PUSH1 0x40 MLOAD RETURNDATASIZE DUP11 DUP3 RETURNDATACOPY RETURNDATASIZE SWAP1 REVERT JUMPDEST POP PUSH1 0x5F PUSH2 0x343 JUMP JUMPDEST PUSH4 0x4E487B71 PUSH1 0xE0 SHL DUP10 MSTORE PUSH1 0x11 PUSH1 0x4 MSTORE PUSH1 0x24 DUP10 REVERT JUMPDEST PUSH4 0x4E487B71 PUSH1 0xE0 SHL DUP11 MSTORE PUSH1 0x11 PUSH1 0x4 MSTORE PUSH1 0x24 DUP11 REVERT JUMPDEST PUSH1 0x1 DUP6 SUB PUSH2 0x585 JUMPI PUSH1 0x1E SWAP1 PUSH2 0x31B JUMP JUMPDEST PUSH1 0x2 DUP6 SUB PUSH2 0x595 JUMPI PUSH1 0xF SWAP1 PUSH2 0x31B JUMP JUMPDEST PUSH1 0x5 SWAP1 PUSH2 0x31B JUMP JUMPDEST PUSH1 0x1 SWAP2 POP PUSH2 0x30D JUMP JUMPDEST PUSH4 0x4E487B71 PUSH1 0xE0 SHL DUP9 MSTORE PUSH1 0x11 PUSH1 0x4 MSTORE PUSH1 0x24 DUP9 REVERT JUMPDEST POP PUSH1 0x1 PUSH2 0x2F8 JUMP JUMPDEST PUSH4 0x4E487B71 PUSH1 0xE0 SHL DUP8 MSTORE PUSH1 0x11 PUSH1 0x4 MSTORE PUSH1 0x24 DUP8 REVERT JUMPDEST PUSH1 0x40 MLOAD PUSH3 0x461BCD PUSH1 0xE5 SHL DUP2 MSTORE PUSH1 0x20 PUSH1 0x4 DUP3 ADD MSTORE PUSH1 0x16 PUSH1 0x24 DUP3 ADD MSTORE PUSH22 0x546F6F6C20686173206E6F206475726162696C697479 PUSH1 0x50 SHL PUSH1 0x44 DUP3 ADD MSTORE PUSH1 0x64 SWAP1 REVERT JUMPDEST PUSH1 0x40 MLOAD PUSH3 0x461BCD PUSH1 0xE5 SHL DUP2 MSTORE PUSH1 0x20 PUSH1 0x4 DUP3 ADD MSTORE PUSH1 0x14 PUSH1 0x24 DUP3 ADD MSTORE PUSH20 0x53746F6E65206E6F7420706F6C69736861626C65 PUSH1 0x60 SHL PUSH1 0x44 DUP3 ADD MSTORE PUSH1 0x64 SWAP1 REVERT JUMPDEST SWAP4 POP SWAP2 POP PUSH1 0x60 DUP4 RETURNDATASIZE PUSH1 0x60 GT PUSH2 0x68E JUMPI JUMPDEST DUP2 PUSH2 0x66D PUSH1 0x60 SWAP4 DUP4 PUSH2 0x859 JUMP JUMPDEST DUP2 ADD SUB SLT PUSH2 0x68A JUMPI PUSH1 0x20 PUSH2 0x680 DUP5 PUSH2 0x8B0 JUMP JUMPDEST SWAP4 ADD MLOAD SWAP2 CODESIZE PUSH2 0x2C7 JUMP JUMPDEST DUP8 DUP1 REVERT JUMPDEST RETURNDATASIZE SWAP2 POP PUSH2 0x660 JUMP JUMPDEST SWAP3 POP POP POP PUSH1 0x80 DUP2 RETURNDATASIZE PUSH1 0x80 GT PUSH2 0x6E6 JUMPI JUMPDEST DUP2 PUSH2 0x6B3 PUSH1 0x80 SWAP4 DUP4 PUSH2 0x859 JUMP JUMPDEST DUP2 ADD SUB SLT PUSH2 0x511 JUMPI PUSH2 0x6C4 DUP2 PUSH2 0x8B0 JUMP JUMPDEST SWAP1 PUSH1 0x20 DUP2 ADD MLOAD SWAP3 PUSH1 0x60 PUSH1 0x40 DUP4 ADD MLOAD SWAP3 ADD MLOAD DUP1 ISZERO ISZERO SUB PUSH2 0x68A JUMPI SWAP3 SWAP1 PUSH1 0x60 PUSH2 0x297 JUMP JUMPDEST RETURNDATASIZE SWAP2 POP PUSH2 0x6A6 JUMP JUMPDEST PUSH1 0x40 MLOAD RETURNDATASIZE DUP9 DUP3 RETURNDATACOPY RETURNDATASIZE SWAP1 REVERT JUMPDEST PUSH1 0x40 MLOAD PUSH3 0x461BCD PUSH1 0xE5 SHL DUP2 MSTORE PUSH1 0x20 PUSH1 0x4 DUP3 ADD MSTORE PUSH1 0xE PUSH1 0x24 DUP3 ADD MSTORE PUSH14 0x2737BA103A37B7B61037BBB732B9 PUSH1 0x91 SHL PUSH1 0x44 DUP3 ADD MSTORE PUSH1 0x64 SWAP1 REVERT JUMPDEST PUSH2 0x751 SWAP2 POP PUSH1 0x20 RETURNDATASIZE PUSH1 0x20 GT PUSH2 0x757 JUMPI JUMPDEST PUSH2 0x749 DUP2 DUP4 PUSH2 0x859 JUMP JUMPDEST DUP2 ADD SWAP1 PUSH2 0x891 JUMP JUMPDEST CODESIZE PUSH2 0x256 JUMP JUMPDEST POP RETURNDATASIZE PUSH2 0x73F JUMP JUMPDEST PUSH1 0x40 MLOAD PUSH3 0x461BCD PUSH1 0xE5 SHL DUP2 MSTORE PUSH1 0x20 PUSH1 0x4 DUP3 ADD MSTORE PUSH1 0xF PUSH1 0x24 DUP3 ADD MSTORE PUSH15 0x2737BA1039BA37B7329037BBB732B9 PUSH1 0x89 SHL PUSH1 0x44 DUP3 ADD MSTORE PUSH1 0x64 SWAP1 REVERT JUMPDEST PUSH2 0x7AE SWAP2 POP PUSH1 0x20 RETURNDATASIZE PUSH1 0x20 GT PUSH2 0x757 JUMPI PUSH2 0x749 DUP2 DUP4 PUSH2 0x859 JUMP JUMPDEST CODESIZE PUSH2 0x20A JUMP JUMPDEST PUSH1 0x40 MLOAD RETURNDATASIZE DUP8 DUP3 RETURNDATACOPY RETURNDATASIZE SWAP1 REVERT JUMPDEST POP CALLVALUE PUSH2 0xF3 JUMPI DUP1 PUSH1 0x3 NOT CALLDATASIZE ADD SLT PUSH2 0xF3 JUMPI PUSH2 0x7D8 PUSH2 0x8BE JUMP JUMPDEST DUP1 SLOAD PUSH1 0x1 PUSH1 0x1 PUSH1 0xA0 SHL SUB NOT DUP2 AND DUP3 SSTORE DUP2 SWAP1 PUSH1 0x1 PUSH1 0x1 PUSH1 0xA0 SHL SUB AND PUSH32 0x8BE0079C531659141344CD1FD0A4F28419497F9722A3DAAFE3B4186F6B6457E0 DUP3 DUP1 LOG3 DUP1 RETURN JUMPDEST SWAP1 POP CALLVALUE PUSH2 0x4C9 JUMPI DUP2 PUSH1 0x3 NOT CALLDATASIZE ADD SLT PUSH2 0x4C9 JUMPI PUSH1 0x1 SLOAD PUSH1 0x1 PUSH1 0x1 PUSH1 0xA0 SHL SUB AND DUP2 MSTORE PUSH1 0x20 SWAP1 RETURN JUMPDEST PUSH1 0x4 CALLDATALOAD SWAP1 PUSH1 0x1 PUSH1 0x1 PUSH1 0xA0 SHL SUB DUP3 AND DUP3 SUB PUSH2 0x854 JUMPI JUMP JUMPDEST PUSH1 0x0 DUP1 REVERT JUMPDEST SWAP1 PUSH1 0x1F DUP1 NOT SWAP2 ADD AND DUP2 ADD SWAP1 DUP2 LT PUSH8 0xFFFFFFFFFFFFFFFF DUP3 GT OR PUSH2 0x87B JUMPI PUSH1 0x40 MSTORE JUMP JUMPDEST PUSH4 0x4E487B71 PUSH1 0xE0 SHL PUSH1 0x0 MSTORE PUSH1 0x41 PUSH1 0x4 MSTORE PUSH1 0x24 PUSH1 0x0 REVERT JUMPDEST SWAP1 DUP2 PUSH1 0x20 SWAP2 SUB SLT PUSH2 0x854 JUMPI MLOAD PUSH1 0x1 PUSH1 0x1 PUSH1 0xA0 SHL SUB DUP2 AND DUP2 SUB PUSH2 0x854 JUMPI SWAP1 JUMP JUMPDEST MLOAD SWAP1 PUSH1 0xFF DUP3 AND DUP3 SUB PUSH2 0x854 JUMPI JUMP JUMPDEST PUSH1 0x0 SLOAD PUSH1 0x1 PUSH1 0x1 PUSH1 0xA0 SHL SUB AND CALLER SUB PUSH2 0x8D2 JUMPI JUMP JUMPDEST PUSH4 0x118CDAA7 PUSH1 0xE0 SHL PUSH1 0x0 MSTORE CALLER PUSH1 0x4 MSTORE PUSH1 0x24 PUSH1 0x0 REVERT INVALID LOG2 PUSH5 0x6970667358 0x22 SLT KECCAK256 PUSH28 0xAA984EF3F878E8B038F606E3526BD7DF49495FB04AC15B12384C8A8A TLOAD SMOD PUSH15 0x64736F6C634300081C003300000000 "},"methodIdentifiers":{"owner()":"8da5cb5b","polish(uint256,uint256)":"7d8521f3","renounceOwnership()":"715018a6","setContracts(address,address)":"d8952a49","stone()":"0167eb85","tool()":"d9a969f8","transferOwnership(address)":"f2fde38b"}}}}}