{
  "_format": "hh-sol-artifact-1",
  "contractName": "Quest",
  "sourceName": "contracts/Quest.sol",
  "abi": [
    {
      "inputs": [
        {
          "internalType": "address",
          "name": "_token",
          "type": "address"
        }
      ],
      "stateMutability": "nonpayable",
      "type": "constructor"
    },
    {
      "inputs": [
        {
          "internalType": "address",
          "name": "owner",
          "type": "address"
        }
      ],
      "name": "OwnableInvalidOwner",
      "type": "error"
    },
    {
      "inputs": [
        {
          "internalType": "address",
          "name": "account",
          "type": "address"
        }
      ],
      "name": "OwnableUnauthorizedAccount",
      "type": "error"
    },
    {
      "anonymous": false,
      "inputs": [
        {
          "indexed": true,
          "internalType": "address",
          "name": "previousOwner",
          "type": "address"
        },
        {
          "indexed": true,
          "internalType": "address",
          "name": "newOwner",
          "type": "address"
        }
      ],
      "name": "OwnershipTransferred",
      "type": "event"
    },
    {
      "anonymous": false,
      "inputs": [
        {
          "indexed": true,
          "internalType": "address",
          "name": "user",
          "type": "address"
        },
        {
          "indexed": true,
          "internalType": "uint256",
          "name": "questId",
          "type": "uint256"
        }
      ],
      "name": "QuestCompleted",
      "type": "event"
    },
    {
      "anonymous": false,
      "inputs": [
        {
          "indexed": true,
          "internalType": "uint256",
          "name": "questId",
          "type": "uint256"
        },
        {
          "indexed": false,
          "internalType": "enum Quest.QuestType",
          "name": "questType",
          "type": "uint8"
        },
        {
          "indexed": false,
          "internalType": "uint256",
          "name": "reward",
          "type": "uint256"
        }
      ],
      "name": "QuestCreated",
      "type": "event"
    },
    {
      "anonymous": false,
      "inputs": [
        {
          "indexed": true,
          "internalType": "address",
          "name": "user",
          "type": "address"
        },
        {
          "indexed": true,
          "internalType": "uint256",
          "name": "questId",
          "type": "uint256"
        },
        {
          "indexed": false,
          "internalType": "uint256",
          "name": "reward",
          "type": "uint256"
        }
      ],
      "name": "RewardClaimed",
      "type": "event"
    },
    {
      "inputs": [
        {
          "internalType": "address",
          "name": "user",
          "type": "address"
        },
        {
          "internalType": "uint256",
          "name": "questId",
          "type": "uint256"
        }
      ],
      "name": "assignQuestToUser",
      "outputs": [],
      "stateMutability": "nonpayable",
      "type": "function"
    },
    {
      "inputs": [
        {
          "internalType": "uint256",
          "name": "questId",
          "type": "uint256"
        }
      ],
      "name": "claimReward",
      "outputs": [],
      "stateMutability": "nonpayable",
      "type": "function"
    },
    {
      "inputs": [
        {
          "internalType": "enum Quest.QuestType",
          "name": "questType",
          "type": "uint8"
        },
        {
          "internalType": "string",
          "name": "description",
          "type": "string"
        },
        {
          "internalType": "uint256",
          "name": "reward",
          "type": "uint256"
        }
      ],
      "name": "createQuest",
      "outputs": [],
      "stateMutability": "nonpayable",
      "type": "function"
    },
    {
      "inputs": [],
      "name": "getQuestCount",
      "outputs": [
        {
          "internalType": "uint256",
          "name": "",
          "type": "uint256"
        }
      ],
      "stateMutability": "view",
      "type": "function"
    },
    {
      "inputs": [],
      "name": "owner",
      "outputs": [
        {
          "internalType": "address",
          "name": "",
          "type": "address"
        }
      ],
      "stateMutability": "view",
      "type": "function"
    },
    {
      "inputs": [
        {
          "internalType": "uint256",
          "name": "",
          "type": "uint256"
        }
      ],
      "name": "quests",
      "outputs": [
        {
          "internalType": "enum Quest.QuestType",
          "name": "questType",
          "type": "uint8"
        },
        {
          "internalType": "string",
          "name": "description",
          "type": "string"
        },
        {
          "internalType": "uint256",
          "name": "reward",
          "type": "uint256"
        },
        {
          "internalType": "bool",
          "name": "active",
          "type": "bool"
        }
      ],
      "stateMutability": "view",
      "type": "function"
    },
    {
      "inputs": [],
      "name": "renounceOwnership",
      "outputs": [],
      "stateMutability": "nonpayable",
      "type": "function"
    },
    {
      "inputs": [],
      "name": "token",
      "outputs": [
        {
          "internalType": "contract IERC20",
          "name": "",
          "type": "address"
        }
      ],
      "stateMutability": "view",
      "type": "function"
    },
    {
      "inputs": [
        {
          "internalType": "address",
          "name": "newOwner",
          "type": "address"
        }
      ],
      "name": "transferOwnership",
      "outputs": [],
      "stateMutability": "nonpayable",
      "type": "function"
    },
    {
      "inputs": [
        {
          "internalType": "address",
          "name": "user",
          "type": "address"
        },
        {
          "internalType": "uint256",
          "name": "questId",
          "type": "uint256"
        },
        {
          "internalType": "uint256",
          "name": "increment",
          "type": "uint256"
        }
      ],
      "name": "updateProgress",
      "outputs": [],
      "stateMutability": "nonpayable",
      "type": "function"
    },
    {
      "inputs": [
        {
          "internalType": "address",
          "name": "",
          "type": "address"
        },
        {
          "internalType": "uint256",
          "name": "",
          "type": "uint256"
        }
      ],
      "name": "userProgress",
      "outputs": [
        {
          "internalType": "uint256",
          "name": "questId",
          "type": "uint256"
        },
        {
          "internalType": "uint256",
          "name": "progress",
          "type": "uint256"
        },
        {
          "internalType": "bool",
          "name": "completed",
          "type": "bool"
        },
        {
          "internalType": "uint256",
          "name": "claimedAt",
          "type": "uint256"
        }
      ],
      "stateMutability": "view",
      "type": "function"
    },
    {
      "inputs": [
        {
          "internalType": "address",
          "name": "",
          "type": "address"
        },
        {
          "internalType": "uint256",
          "name": "",
          "type": "uint256"
        }
      ],
      "name": "userQuestIds",
      "outputs": [
        {
          "internalType": "uint256",
          "name": "",
          "type": "uint256"
        }
      ],
      "stateMutability": "view",
      "type": "function"
    }
  ],
  "bytecode": "0x60803460d157601f610d7938819003918201601f19168301916001600160401b0383118484101760d65780849260209460405283398101031260d157516001600160a01b0381169081900360d157331560bb5760008054336001600160a01b0319821681178355604051939290916001600160a01b0316907f8be0079c531659141344cd1fd0a4f28419497f9722a3daafe3b4186f6b6457e09080a3600180546001600160a01b031916919091179055610c8c90816100ed8239f35b631e4fbdf760e01b600052600060045260246000fd5b600080fd5b634e487b7160e01b600052604160045260246000fdfe608080604052600436101561001357600080fd5b60003560e01c90816339aa204a14610a6e5750806350e56f7d146109345780636397178114610916578063715018a6146108bd5780638da5cb5b14610894578063a29057c4146107c1578063ae169a50146105f6578063e085f980146104a9578063e9eee211146101b3578063f2fde38b1461012a578063f9b771d0146100d15763fc0c546a146100a357600080fd5b346100cc5760003660031901126100cc576001546040516001600160a01b039091168152602090f35b600080fd5b346100cc5760403660031901126100cc576100ea610ad9565b6001600160a01b03166000908152600460205260409020805460243591908210156100cc5760209161011b91610bd9565b90549060031b1c604051908152f35b346100cc5760203660031901126100cc57610143610ad9565b61014b610c2d565b6001600160a01b0316801561019d57600080546001600160a01b03198116831782556001600160a01b0316907f8be0079c531659141344cd1fd0a4f28419497f9722a3daafe3b4186f6b6457e09080a3005b631e4fbdf760e01b600052600060045260246000fd5b346100cc5760603660031901126100cc5760043560048110156100cc576024359067ffffffffffffffff82116100cc57366023830112156100cc57816004013567ffffffffffffffff8111610493576040519261021a601f8301601f191660200185610b94565b81845236602483830101116100cc5781600092602460209301838701378401015260443590610247610c2d565b60405161025381610b78565b6000938282526020820190815260408201848152606083019160018352600254600160401b81101561047f5780600161028f9201600255610aef565b94909461046b575160048110156104575760ff8019865416911617845560018401905180519067ffffffffffffffff8211610443576102ce8354610b3e565b601f81116103fe575b50602090601f831160011461039357918061032a97969492600396948c92610388575b50508160011b9160001990871b1c19161790555b51600284015551151591019060ff801983541691151516179055565b600254600019810192908311610374577f1e3a3b7d96a4b363afa86a39de713cc3a28b02b182493503182e433b1e4d7f309160409161036b83518093610bb6565b6020820152a280f35b634e487b7160e01b84526011600452602484fd5b015190508b806102fa565b838a52818a209190601f1984168b5b8181106103e657509260019285926003989661032a9b9a9896106103ce575b505050811b01905561030e565b015160001983891b60f8161c191690558b80806103c1565b929360206001819287860151815501950193016103a2565b838a5260208a20601f840160051c81019160208510610439575b601f0160051c01905b81811061042e57506102d7565b8a8155600101610421565b9091508190610418565b634e487b7160e01b89526041600452602489fd5b634e487b7160e01b88526021600452602488fd5b634e487b7160e01b88526004889052602488fd5b634e487b7160e01b88526041600452602488fd5b634e487b7160e01b600052604160045260246000fd5b346100cc5760203660031901126100cc576004356002548110156100cc576104d090610aef565b5060ff815416906001810190604051918260008254926104ef84610b3e565b80845293600181169081156105d4575060011461058d575b50610534959392509061051b910384610b94565b60ff600360028301549201541660405194858094610bb6565b6080602084015283519182608085015260005b838110610575575060a094506000858486010152604084015215156060830152601f80199101168101030190f35b602086820181015160a0898401015287955001610547565b90506000929192526020600020906000915b8183106105b857505090602061051b9282010186610507565b602091935080600191548385890101520191019091849261059f565b90506020925061051b94915060ff191682840152151560051b82010186610507565b346100cc5760203660031901126100cc57600435336000526003602052604060002081600052602052604060002060ff6002820154161561078657600301805461074f57429055600261064882610aef565b50015460015460405163a9059cbb60e01b81523360048201526024810183905290602090829060449082906000906001600160a01b03165af190811561074357600091610701575b50156106c4576040519081527ff01da32686223933d8a18a391060918c7f11a3648639edd87ae013e2e273174360203392a3005b60405162461bcd60e51b8152602060048201526015602482015274151bdad95b881d1c985b9cd9995c8819985a5b1959605a1b6044820152606490fd5b6020813d60201161073b575b8161071a60209383610b94565b810103126107375751908115158203610734575083610690565b80fd5b5080fd5b3d915061070d565b6040513d6000823e3d90fd5b60405162461bcd60e51b815260206004820152600f60248201526e105b1c9958591e4818db185a5b5959608a1b6044820152606490fd5b60405162461bcd60e51b8152602060048201526013602482015272145d595cdd081b9bdd0818dbdb5c1b195d1959606a1b6044820152606490fd5b346100cc5760603660031901126100cc576107da610ad9565b602435906107e6610c2d565b6107f36002548310610bf1565b60018060a01b03168060005260036020526040600020826000526020526040600020600181018054604435810180911161087e57806001925510158061086f575b61083a57005b600201805460ff191660011790557f6618f11353f68847dc28cc4b36a04270fab5e356fa35386e6315ba7ff205a633600080a3005b5060ff60028201541615610834565b634e487b7160e01b600052601160045260246000fd5b346100cc5760003660031901126100cc576000546040516001600160a01b039091168152602090f35b346100cc5760003660031901126100cc576108d6610c2d565b600080546001600160a01b0319811682556001600160a01b03167f8be0079c531659141344cd1fd0a4f28419497f9722a3daafe3b4186f6b6457e08280a3005b346100cc5760003660031901126100cc576020600254604051908152f35b346100cc5760403660031901126100cc5761094d610ad9565b60243590610959610c2d565b6109666002548310610bf1565b60ff600361097384610aef565b5001541615610a36576001600160a01b0316600081815260046020526040902080549190600160401b83101561049357826109b5916001600395018155610bd9565b815490841b9085821b91600019901b1916179055610a30604051936109d985610b78565b808552602085016000815260408601916000835260608701946000865260005285602052604060002090600052602052604060002095518655516001860155511515600285019060ff801983541691151516179055565b51910155005b60405162461bcd60e51b815260206004820152601060248201526f5175657374206e6f742061637469766560801b6044820152606490fd5b346100cc5760403660031901126100cc576080906001600160a01b03610a92610ad9565b166000526003602052604060002060243560005260205260406000208054906001810154600360ff6002840154169201549284526020840152151560408301526060820152f35b600435906001600160a01b03821682036100cc57565b600254811015610b28576002600081815291901b7f405787fa12a823e0f2b7631cc41b3ba8828b3321ca811111fa75cd3aa3bb5ace0191565b634e487b7160e01b600052603260045260246000fd5b90600182811c92168015610b6e575b6020831014610b5857565b634e487b7160e01b600052602260045260246000fd5b91607f1691610b4d565b6080810190811067ffffffffffffffff82111761049357604052565b90601f8019910116810190811067ffffffffffffffff82111761049357604052565b906004821015610bc35752565b634e487b7160e01b600052602160045260246000fd5b8054821015610b285760005260206000200190600090565b15610bf857565b60405162461bcd60e51b815260206004820152600d60248201526c125b9d985b1a59081c5d595cdd609a1b6044820152606490fd5b6000546001600160a01b03163303610c4157565b63118cdaa760e01b6000523360045260246000fdfea2646970667358221220638ec2519ee3db834cde2232e188bc301db464336ad8e7d0d32cf8dd0ea0516364736f6c634300081c0033",
  "linkReferences": {},
  "deployedLinkReferences": {}
}