{
  "_format": "hh-sol-artifact-1",
  "contractName": "StoneNFT",
  "sourceName": "contracts/StoneNFT.sol",
  "abi": [
    {
      "inputs": [],
      "stateMutability": "nonpayable",
      "type": "constructor"
    },
    {
      "inputs": [
        {
          "internalType": "address",
          "name": "sender",
          "type": "address"
        },
        {
          "internalType": "uint256",
          "name": "tokenId",
          "type": "uint256"
        },
        {
          "internalType": "address",
          "name": "owner",
          "type": "address"
        }
      ],
      "name": "ERC721IncorrectOwner",
      "type": "error"
    },
    {
      "inputs": [
        {
          "internalType": "address",
          "name": "operator",
          "type": "address"
        },
        {
          "internalType": "uint256",
          "name": "tokenId",
          "type": "uint256"
        }
      ],
      "name": "ERC721InsufficientApproval",
      "type": "error"
    },
    {
      "inputs": [
        {
          "internalType": "address",
          "name": "approver",
          "type": "address"
        }
      ],
      "name": "ERC721InvalidApprover",
      "type": "error"
    },
    {
      "inputs": [
        {
          "internalType": "address",
          "name": "operator",
          "type": "address"
        }
      ],
      "name": "ERC721InvalidOperator",
      "type": "error"
    },
    {
      "inputs": [
        {
          "internalType": "address",
          "name": "owner",
          "type": "address"
        }
      ],
      "name": "ERC721InvalidOwner",
      "type": "error"
    },
    {
      "inputs": [
        {
          "internalType": "address",
          "name": "receiver",
          "type": "address"
        }
      ],
      "name": "ERC721InvalidReceiver",
      "type": "error"
    },
    {
      "inputs": [
        {
          "internalType": "address",
          "name": "sender",
          "type": "address"
        }
      ],
      "name": "ERC721InvalidSender",
      "type": "error"
    },
    {
      "inputs": [
        {
          "internalType": "uint256",
          "name": "tokenId",
          "type": "uint256"
        }
      ],
      "name": "ERC721NonexistentToken",
      "type": "error"
    },
    {
      "inputs": [
        {
          "internalType": "address",
          "name": "owner",
          "type": "address"
        }
      ],
      "name": "OwnableInvalidOwner",
      "type": "error"
    },
    {
      "inputs": [
        {
          "internalType": "address",
          "name": "account",
          "type": "address"
        }
      ],
      "name": "OwnableUnauthorizedAccount",
      "type": "error"
    },
    {
      "anonymous": false,
      "inputs": [
        {
          "indexed": true,
          "internalType": "address",
          "name": "owner",
          "type": "address"
        },
        {
          "indexed": true,
          "internalType": "address",
          "name": "approved",
          "type": "address"
        },
        {
          "indexed": true,
          "internalType": "uint256",
          "name": "tokenId",
          "type": "uint256"
        }
      ],
      "name": "Approval",
      "type": "event"
    },
    {
      "anonymous": false,
      "inputs": [
        {
          "indexed": true,
          "internalType": "address",
          "name": "owner",
          "type": "address"
        },
        {
          "indexed": true,
          "internalType": "address",
          "name": "operator",
          "type": "address"
        },
        {
          "indexed": false,
          "internalType": "bool",
          "name": "approved",
          "type": "bool"
        }
      ],
      "name": "ApprovalForAll",
      "type": "event"
    },
    {
      "anonymous": false,
      "inputs": [
        {
          "indexed": true,
          "internalType": "address",
          "name": "previousOwner",
          "type": "address"
        },
        {
          "indexed": true,
          "internalType": "address",
          "name": "newOwner",
          "type": "address"
        }
      ],
      "name": "OwnershipTransferred",
      "type": "event"
    },
    {
      "anonymous": false,
      "inputs": [
        {
          "indexed": true,
          "internalType": "address",
          "name": "from",
          "type": "address"
        },
        {
          "indexed": true,
          "internalType": "address",
          "name": "to",
          "type": "address"
        },
        {
          "indexed": true,
          "internalType": "uint256",
          "name": "tokenId",
          "type": "uint256"
        }
      ],
      "name": "Transfer",
      "type": "event"
    },
    {
      "inputs": [
        {
          "internalType": "address",
          "name": "to",
          "type": "address"
        },
        {
          "internalType": "uint256",
          "name": "tokenId",
          "type": "uint256"
        }
      ],
      "name": "approve",
      "outputs": [],
      "stateMutability": "nonpayable",
      "type": "function"
    },
    {
      "inputs": [
        {
          "internalType": "address",
          "name": "owner",
          "type": "address"
        }
      ],
      "name": "balanceOf",
      "outputs": [
        {
          "internalType": "uint256",
          "name": "",
          "type": "uint256"
        }
      ],
      "stateMutability": "view",
      "type": "function"
    },
    {
      "inputs": [
        {
          "internalType": "uint256",
          "name": "id",
          "type": "uint256"
        }
      ],
      "name": "burn",
      "outputs": [],
      "stateMutability": "nonpayable",
      "type": "function"
    },
    {
      "inputs": [
        {
          "internalType": "uint256",
          "name": "tokenId",
          "type": "uint256"
        }
      ],
      "name": "getApproved",
      "outputs": [
        {
          "internalType": "address",
          "name": "",
          "type": "address"
        }
      ],
      "stateMutability": "view",
      "type": "function"
    },
    {
      "inputs": [
        {
          "internalType": "uint256",
          "name": "id",
          "type": "uint256"
        }
      ],
      "name": "getStoneProps",
      "outputs": [
        {
          "internalType": "uint8",
          "name": "",
          "type": "uint8"
        },
        {
          "internalType": "uint256",
          "name": "",
          "type": "uint256"
        },
        {
          "internalType": "uint256",
          "name": "",
          "type": "uint256"
        },
        {
          "internalType": "bool",
          "name": "",
          "type": "bool"
        }
      ],
      "stateMutability": "view",
      "type": "function"
    },
    {
      "inputs": [
        {
          "internalType": "uint256",
          "name": "id",
          "type": "uint256"
        },
        {
          "internalType": "uint256",
          "name": "value",
          "type": "uint256"
        }
      ],
      "name": "increaseDamage",
      "outputs": [],
      "stateMutability": "nonpayable",
      "type": "function"
    },
    {
      "inputs": [
        {
          "internalType": "address",
          "name": "owner",
          "type": "address"
        },
        {
          "internalType": "address",
          "name": "operator",
          "type": "address"
        }
      ],
      "name": "isApprovedForAll",
      "outputs": [
        {
          "internalType": "bool",
          "name": "",
          "type": "bool"
        }
      ],
      "stateMutability": "view",
      "type": "function"
    },
    {
      "inputs": [
        {
          "internalType": "address",
          "name": "to",
          "type": "address"
        },
        {
          "internalType": "uint8",
          "name": "grade",
          "type": "uint8"
        },
        {
          "internalType": "uint256",
          "name": "damageLimit",
          "type": "uint256"
        },
        {
          "internalType": "bool",
          "name": "mysterious",
          "type": "bool"
        }
      ],
      "name": "mintStone",
      "outputs": [
        {
          "internalType": "uint256",
          "name": "",
          "type": "uint256"
        }
      ],
      "stateMutability": "nonpayable",
      "type": "function"
    },
    {
      "inputs": [],
      "name": "name",
      "outputs": [
        {
          "internalType": "string",
          "name": "",
          "type": "string"
        }
      ],
      "stateMutability": "view",
      "type": "function"
    },
    {
      "inputs": [],
      "name": "nextId",
      "outputs": [
        {
          "internalType": "uint256",
          "name": "",
          "type": "uint256"
        }
      ],
      "stateMutability": "view",
      "type": "function"
    },
    {
      "inputs": [],
      "name": "owner",
      "outputs": [
        {
          "internalType": "address",
          "name": "",
          "type": "address"
        }
      ],
      "stateMutability": "view",
      "type": "function"
    },
    {
      "inputs": [
        {
          "internalType": "uint256",
          "name": "tokenId",
          "type": "uint256"
        }
      ],
      "name": "ownerOf",
      "outputs": [
        {
          "internalType": "address",
          "name": "",
          "type": "address"
        }
      ],
      "stateMutability": "view",
      "type": "function"
    },
    {
      "inputs": [],
      "name": "polishingContract",
      "outputs": [
        {
          "internalType": "address",
          "name": "",
          "type": "address"
        }
      ],
      "stateMutability": "view",
      "type": "function"
    },
    {
      "inputs": [],
      "name": "renounceOwnership",
      "outputs": [],
      "stateMutability": "nonpayable",
      "type": "function"
    },
    {
      "inputs": [
        {
          "internalType": "address",
          "name": "from",
          "type": "address"
        },
        {
          "internalType": "address",
          "name": "to",
          "type": "address"
        },
        {
          "internalType": "uint256",
          "name": "tokenId",
          "type": "uint256"
        }
      ],
      "name": "safeTransferFrom",
      "outputs": [],
      "stateMutability": "nonpayable",
      "type": "function"
    },
    {
      "inputs": [
        {
          "internalType": "address",
          "name": "from",
          "type": "address"
        },
        {
          "internalType": "address",
          "name": "to",
          "type": "address"
        },
        {
          "internalType": "uint256",
          "name": "tokenId",
          "type": "uint256"
        },
        {
          "internalType": "bytes",
          "name": "data",
          "type": "bytes"
        }
      ],
      "name": "safeTransferFrom",
      "outputs": [],
      "stateMutability": "nonpayable",
      "type": "function"
    },
    {
      "inputs": [
        {
          "internalType": "address",
          "name": "operator",
          "type": "address"
        },
        {
          "internalType": "bool",
          "name": "approved",
          "type": "bool"
        }
      ],
      "name": "setApprovalForAll",
      "outputs": [],
      "stateMutability": "nonpayable",
      "type": "function"
    },
    {
      "inputs": [
        {
          "internalType": "uint256",
          "name": "id",
          "type": "uint256"
        },
        {
          "internalType": "uint8",
          "name": "newGrade",
          "type": "uint8"
        }
      ],
      "name": "setGrade",
      "outputs": [],
      "stateMutability": "nonpayable",
      "type": "function"
    },
    {
      "inputs": [
        {
          "internalType": "address",
          "name": "_p",
          "type": "address"
        }
      ],
      "name": "setPolishingContract",
      "outputs": [],
      "stateMutability": "nonpayable",
      "type": "function"
    },
    {
      "inputs": [
        {
          "internalType": "uint256",
          "name": "",
          "type": "uint256"
        }
      ],
      "name": "stones",
      "outputs": [
        {
          "internalType": "uint8",
          "name": "grade",
          "type": "uint8"
        },
        {
          "internalType": "uint256",
          "name": "damage",
          "type": "uint256"
        },
        {
          "internalType": "uint256",
          "name": "damageLimit",
          "type": "uint256"
        },
        {
          "internalType": "bool",
          "name": "mysterious",
          "type": "bool"
        }
      ],
      "stateMutability": "view",
      "type": "function"
    },
    {
      "inputs": [
        {
          "internalType": "bytes4",
          "name": "interfaceId",
          "type": "bytes4"
        }
      ],
      "name": "supportsInterface",
      "outputs": [
        {
          "internalType": "bool",
          "name": "",
          "type": "bool"
        }
      ],
      "stateMutability": "view",
      "type": "function"
    },
    {
      "inputs": [],
      "name": "symbol",
      "outputs": [
        {
          "internalType": "string",
          "name": "",
          "type": "string"
        }
      ],
      "stateMutability": "view",
      "type": "function"
    },
    {
      "inputs": [
        {
          "internalType": "uint256",
          "name": "tokenId",
          "type": "uint256"
        }
      ],
      "name": "tokenURI",
      "outputs": [
        {
          "internalType": "string",
          "name": "",
          "type": "string"
        }
      ],
      "stateMutability": "view",
      "type": "function"
    },
    {
      "inputs": [
        {
          "internalType": "address",
          "name": "from",
          "type": "address"
        },
        {
          "internalType": "address",
          "name": "to",
          "type": "address"
        },
        {
          "internalType": "uint256",
          "name": "tokenId",
          "type": "uint256"
        }
      ],
      "name": "transferFrom",
      "outputs": [],
      "stateMutability": "nonpayable",
      "type": "function"
    },
    {
      "inputs": [
        {
          "internalType": "address",
          "name": "newOwner",
          "type": "address"
        }
      ],
      "name": "transferOwnership",
      "outputs": [],
      "stateMutability": "nonpayable",
      "type": "function"
    }
  ],
  "bytecode": "0x60806040523461038657604080519081016001600160401b03811182821017610293576040908152600a8252694d6167696353746f6e6560b01b602083015280519081016001600160401b038111828210176102935760405260038152621354d560ea1b602082015281516001600160401b03811161029357600054600181811c9116801561037c575b602082101461027357601f8111610318575b50602092601f82116001146102b457928192936000926102a9575b50508160011b916000199060031b1c1916176000555b80516001600160401b03811161029357600154600181811c91168015610289575b602082101461027357601f811161020e575b50602091601f82116001146101aa5791819260009261019f575b50508160011b916000199060031b1c1916176001555b33156101895760068054336001600160a01b03198216811790925560405191906001600160a01b03167f8be0079c531659141344cd1fd0a4f28419497f9722a3daafe3b4186f6b6457e0600080a3611357908161038c8239f35b631e4fbdf760e01b600052600060045260246000fd5b015190503880610119565b601f198216926001600052806000209160005b8581106101f6575083600195106101dd575b505050811b0160015561012f565b015160001960f88460031b161c191690553880806101cf565b919260206001819286850151815501940192016101bd565b60016000527fb10e2d527612073b26eecdfd717e6a320cf44b4afac2b0732d9fcbe2b7fa0cf6601f830160051c81019160208410610269575b601f0160051c01905b81811061025d57506100ff565b60008155600101610250565b9091508190610247565b634e487b7160e01b600052602260045260246000fd5b90607f16906100ed565b634e487b7160e01b600052604160045260246000fd5b0151905038806100b6565b601f1982169360008052806000209160005b86811061030057508360019596106102e7575b505050811b016000556100cc565b015160001960f88460031b161c191690553880806102d9565b919260206001819286850151815501940192016102c6565b600080527f290decd9548b62a8d60345a988386fc84ba6bc95484008f6362f93160ef3e563601f830160051c81019160208410610372575b601f0160051c01905b818110610366575061009b565b60008155600101610359565b9091508190610350565b90607f1690610089565b600080fdfe608080604052600436101561001357600080fd5b600090813560e01c90816301ffc9a714610e0f5750806306fdde0314610d54578063081812fc14610d17578063095ea7b314610c2f57806323b872dd14610c1757806342842e0e14610be757806342966c6814610afb57806361b8ce8c14610add5780636352211e14610aac5780636e6b1bc814610a5f57806370a0823114610a0c578063715018a6146109af5780638da5cb5b1461098657806395d89b41146108795780639edf747914610570578063a22cb465146104c5578063ab11668e14610480578063b88d4fde146103e1578063c87b56dd14610389578063c8f3d54f14610323578063d9df959c146102fa578063e985e9c5146102a0578063ee5acc521461022a578063f2fde38b146101a05763f7b667341461013457600080fd5b3461019d57602036600319011261019d57604090600435815260076020522060ff81541661019960018301549260ff60036002830154920154169060405194859485926060929594919560ff6080860197168552602085015260408401521515910152565b0390f35b80fd5b503461019d57602036600319011261019d576101ba610ebd565b6101c26111bb565b6001600160a01b0316801561021657600680546001600160a01b0319811683179091556001600160a01b03167f8be0079c531659141344cd1fd0a4f28419497f9722a3daafe3b4186f6b6457e0600080a380f35b631e4fbdf760e01b82526004829052602482fd5b503461019d57604036600319011261019d5761025160018060a01b03600954163314611138565b600435815260076020526040812060018101805491602435830180931161028c576002908383550154809211610285578280f35b5538808280f35b634e487b7160e01b84526011600452602484fd5b503461019d57604036600319011261019d5760406102bc610ebd565b916102c5610ed8565b9260018060a01b031681526005602052209060018060a01b0316600052602052602060ff604060002054166040519015158152f35b503461019d578060031936011261019d576009546040516001600160a01b039091168152602090f35b503461019d57602036600319011261019d57604090600435815260076020522060ff81541661019960018301549260ff60036002830154920154169060405194859485926060929594919560ff6080860197168552602085015260408401521515910152565b503461019d57602036600319011261019d576103a6600435611184565b50806040516103b6602082610f38565b52506101996040516103c9602082610f38565b60008152604051918291602083526020830190610e7c565b503461019d57608036600319011261019d576103fb610ebd565b610403610ed8565b6044356064359167ffffffffffffffff831161047c573660238401121561047c578260040135938561043486610f70565b946104426040519687610f38565b8686523660248883010111610478578661047597602460209301838901378601015261046f838383610f8c565b336111e4565b80f35b5080fd5b8480fd5b503461019d57602036600319011261019d5761049a610ebd565b6104a26111bb565b60018060a01b03166bffffffffffffffffffffffff60a01b600954161760095580f35b503461019d57604036600319011261019d576104df610ebd565b602435908115159081830361056c576001600160a01b03169182156105585761052990338552600560205260408520848652602052604085209060ff801983541691151516179055565b6040519081527f17307eab39ab6107e8899845ad3d59bd9653f200f220920489ca2b5937696c3160203392a380f35b630b61174360e31b84526004839052602484fd5b8380fd5b503461019d57608036600319011261019d5761058a610ebd565b90610593610f28565b606435801515809103610875576105a86111bb565b600854600019811461028c5760010180600855604051926080840184811067ffffffffffffffff821117610861579160ff61063d9594926003946040521684526020840186815260408501916044358352606086019384528752600760205260ff80604089209651161660ff1986541617855551600185015551600284015551151591019060ff801983541691151516179055565b600854916020926040516106518582610f38565b8381526001600160a01b03831692831561084d578285526002865260408520546001600160a01b03168015159081610819575b8587526003885260408088208054600101905585885260028952872080546001600160a01b031916871790558486827fddf252ad1be2c89b69c2b068fc378daa952ba7f163c4a11628f55a4df523b3ef8a80a450610805579085913b6106f1575b50600854604051908152f35b610729926040519384928392630a85bd0160e11b84523360048501528860248501526044840152608060648401526084830190610e7c565b038186865af18391816107c5575b5061078f57503d15610787573d9261074e84610f70565b9361075c6040519586610f38565b84523d838286013e5b8351938461078157633250574960e11b84526004839052602484fd5b84925001fd5b606092610765565b6001600160e01b03191663757a42ff60e11b016107b257505038808083816106e5565b633250574960e11b825260045260249150fd5b9091508481813d83116107fe575b6107dd8183610f38565b8101031261056c57516001600160e01b03198116810361056c579038610737565b503d6107d3565b6339e3563760e11b85526004859052602485fd5b600085815260046020526040902080546001600160a01b031916905580875260038852604087208054600019019055610684565b633250574960e11b85526004859052602485fd5b634e487b7160e01b86526041600452602486fd5b8280fd5b503461019d578060031936011261019d576040519080600154908160011c9160018116801561097c575b6020841081146109685783865290811561094157506001146108e4575b610199846108d081860382610f38565b604051918291602083526020830190610e7c565b600181527fb10e2d527612073b26eecdfd717e6a320cf44b4afac2b0732d9fcbe2b7fa0cf6939250905b808210610927575090915081016020016108d0826108c0565b91926001816020925483858801015201910190929161090e565b60ff191660208087019190915292151560051b850190920192506108d091508390506108c0565b634e487b7160e01b83526022600452602483fd5b92607f16926108a3565b503461019d578060031936011261019d576006546040516001600160a01b039091168152602090f35b503461019d578060031936011261019d576109c86111bb565b600680546001600160a01b0319811690915581906001600160a01b03167f8be0079c531659141344cd1fd0a4f28419497f9722a3daafe3b4186f6b6457e08280a380f35b503461019d57602036600319011261019d576001600160a01b03610a2e610ebd565b168015610a4b578160409160209352600383522054604051908152f35b6322718ad960e21b82526004829052602482fd5b503461019d57604036600319011261019d57610a79610f28565b610a8e60018060a01b03600954163314611138565b6004358252600760205260ff60408320911660ff1982541617905580f35b503461019d57602036600319011261019d576020610acb600435611184565b6040516001600160a01b039091168152f35b503461019d578060031936011261019d576020600854604051908152f35b503461019d57602036600319011261019d57600435610b186111bb565b808252600260205260408220546001600160a01b03168015908115610bb2575b82845260026020526040842080546001600160a01b03191690558284827fddf252ad1be2c89b69c2b068fc378daa952ba7f163c4a11628f55a4df523b3ef8280a450610ba0578152600760205280600360408220828155826001820155826002820155015580f35b637e27328960e01b8252600452602490fd5b600083815260046020526040902080546001600160a01b03191690558084526003602052604084208054600019019055610b38565b503461019d57610475610bf936610eee565b9060405192610c09602085610f38565b85845261046f838383610f8c565b503461019d57610475610c2936610eee565b91610f8c565b503461019d57604036600319011261019d57610c49610ebd565b602435610c5581611184565b33151580610d04575b80610cd9575b610cc65781906001600160a01b0384811691167f8c5be1e5ebec7d5bd14f71427d1e84f3dd0314c0f7b2291e5b200ac8c7c3b9258680a4825260046020526040822080546001600160a01b0319166001600160a01b0390921691909117905580f35b63a9fbf51f60e01b845233600452602484fd5b506001600160a01b038116845260056020908152604080862033875290915284205460ff1615610c64565b506001600160a01b038116331415610c5e565b503461019d57602036600319011261019d57602090600435610d3881611184565b50815260048252604060018060a01b0391205416604051908152f35b503461019d578060031936011261019d5760405190808054908160011c91600181168015610e05575b602084108114610968578386529081156109415750600114610da957610199846108d081860382610f38565b8080527f290decd9548b62a8d60345a988386fc84ba6bc95484008f6362f93160ef3e563939250905b808210610deb575090915081016020016108d0826108c0565b919260018160209254838588010152019101909291610dd2565b92607f1692610d7d565b9050346104785760203660031901126104785760043563ffffffff60e01b811680910361087557602092506380ac58cd60e01b8114908115610e6b575b8115610e5a575b5015158152f35b6301ffc9a760e01b14905038610e53565b635b5e139f60e01b81149150610e4c565b919082519283825260005b848110610ea8575050826000602080949584010152601f8019910116010190565b80602080928401015182828601015201610e87565b600435906001600160a01b0382168203610ed357565b600080fd5b602435906001600160a01b0382168203610ed357565b6060906003190112610ed3576004356001600160a01b0381168103610ed357906024356001600160a01b0381168103610ed3579060443590565b6024359060ff82168203610ed357565b90601f8019910116810190811067ffffffffffffffff821117610f5a57604052565b634e487b7160e01b600052604160045260246000fd5b67ffffffffffffffff8111610f5a57601f01601f191660200190565b6001600160a01b0390911691908215611122576000828152600260205260408120546001600160a01b031693839185903315158061108a575b507fddf252ad1be2c89b69c2b068fc378daa952ba7f163c4a11628f55a4df523b3ef9082611055575b83815260036020526040812060018154019055848152600260205260408120846bffffffffffffffffffffffff60a01b82541617905580a46001600160a01b031680830361103b57505050565b6364283d7b60e01b60005260045260245260445260646000fd5b600085815260046020526040902080546001600160a01b03191690558281526003602052604081208054600019019055610fee565b9150919250806110d3575b156110a4579084849238610fc5565b8390856110bd57602491637e27328960e01b8252600452fd5b60449163177e802f60e01b825233600452602452fd5b503385148015611101575b806110955750838152600460205260408120546001600160a01b03163314611095565b5084815260056020908152604080832033845290915281205460ff166110de565b633250574960e11b600052600060045260246000fd5b1561113f57565b60405162461bcd60e51b815260206004820152601760248201527f4f6e6c7920706f6c697368696e6720636f6e74726163740000000000000000006044820152606490fd5b6000818152600260205260409020546001600160a01b03169081156111a7575090565b637e27328960e01b60005260045260246000fd5b6006546001600160a01b031633036111cf57565b63118cdaa760e01b6000523360045260246000fd5b823b6111f2575b5050505050565b604051630a85bd0160e11b81526001600160a01b03918216600482015291811660248301526044820193909352608060648201529116916020908290819061123e906084830190610e7c565b03816000865af180916000916112de575b50906112a857503d156112a1573d61126681610f70565b906112746040519283610f38565b81523d6000602083013e5b8051908161129c5782633250574960e11b60005260045260246000fd5b602001fd5b606061127f565b6001600160e01b03191663757a42ff60e11b016112ca575038808080806111eb565b633250574960e11b60005260045260246000fd5b6020813d602011611319575b816112f760209383610f38565b810103126104785751906001600160e01b03198216820361019d57503861124f565b3d91506112ea56fea26469706673582212203bed9b036a96696680eb45af2ff86edb76b651abaca4254437d4ee083e9a044c64736f6c634300081c0033",
  "linkReferences": {},
  "deployedLinkReferences": {}
}