{
  "_format": "hh-sol-artifact-1",
  "contractName": "ToolNFT",
  "sourceName": "contracts/ToolNFT.sol",
  "abi": [
    {
      "inputs": [],
      "stateMutability": "nonpayable",
      "type": "constructor"
    },
    {
      "inputs": [
        {
          "internalType": "address",
          "name": "sender",
          "type": "address"
        },
        {
          "internalType": "uint256",
          "name": "tokenId",
          "type": "uint256"
        },
        {
          "internalType": "address",
          "name": "owner",
          "type": "address"
        }
      ],
      "name": "ERC721IncorrectOwner",
      "type": "error"
    },
    {
      "inputs": [
        {
          "internalType": "address",
          "name": "operator",
          "type": "address"
        },
        {
          "internalType": "uint256",
          "name": "tokenId",
          "type": "uint256"
        }
      ],
      "name": "ERC721InsufficientApproval",
      "type": "error"
    },
    {
      "inputs": [
        {
          "internalType": "address",
          "name": "approver",
          "type": "address"
        }
      ],
      "name": "ERC721InvalidApprover",
      "type": "error"
    },
    {
      "inputs": [
        {
          "internalType": "address",
          "name": "operator",
          "type": "address"
        }
      ],
      "name": "ERC721InvalidOperator",
      "type": "error"
    },
    {
      "inputs": [
        {
          "internalType": "address",
          "name": "owner",
          "type": "address"
        }
      ],
      "name": "ERC721InvalidOwner",
      "type": "error"
    },
    {
      "inputs": [
        {
          "internalType": "address",
          "name": "receiver",
          "type": "address"
        }
      ],
      "name": "ERC721InvalidReceiver",
      "type": "error"
    },
    {
      "inputs": [
        {
          "internalType": "address",
          "name": "sender",
          "type": "address"
        }
      ],
      "name": "ERC721InvalidSender",
      "type": "error"
    },
    {
      "inputs": [
        {
          "internalType": "uint256",
          "name": "tokenId",
          "type": "uint256"
        }
      ],
      "name": "ERC721NonexistentToken",
      "type": "error"
    },
    {
      "inputs": [
        {
          "internalType": "address",
          "name": "owner",
          "type": "address"
        }
      ],
      "name": "OwnableInvalidOwner",
      "type": "error"
    },
    {
      "inputs": [
        {
          "internalType": "address",
          "name": "account",
          "type": "address"
        }
      ],
      "name": "OwnableUnauthorizedAccount",
      "type": "error"
    },
    {
      "anonymous": false,
      "inputs": [
        {
          "indexed": true,
          "internalType": "address",
          "name": "owner",
          "type": "address"
        },
        {
          "indexed": true,
          "internalType": "address",
          "name": "approved",
          "type": "address"
        },
        {
          "indexed": true,
          "internalType": "uint256",
          "name": "tokenId",
          "type": "uint256"
        }
      ],
      "name": "Approval",
      "type": "event"
    },
    {
      "anonymous": false,
      "inputs": [
        {
          "indexed": true,
          "internalType": "address",
          "name": "owner",
          "type": "address"
        },
        {
          "indexed": true,
          "internalType": "address",
          "name": "operator",
          "type": "address"
        },
        {
          "indexed": false,
          "internalType": "bool",
          "name": "approved",
          "type": "bool"
        }
      ],
      "name": "ApprovalForAll",
      "type": "event"
    },
    {
      "anonymous": false,
      "inputs": [
        {
          "indexed": true,
          "internalType": "address",
          "name": "previousOwner",
          "type": "address"
        },
        {
          "indexed": true,
          "internalType": "address",
          "name": "newOwner",
          "type": "address"
        }
      ],
      "name": "OwnershipTransferred",
      "type": "event"
    },
    {
      "anonymous": false,
      "inputs": [
        {
          "indexed": true,
          "internalType": "address",
          "name": "from",
          "type": "address"
        },
        {
          "indexed": true,
          "internalType": "address",
          "name": "to",
          "type": "address"
        },
        {
          "indexed": true,
          "internalType": "uint256",
          "name": "tokenId",
          "type": "uint256"
        }
      ],
      "name": "Transfer",
      "type": "event"
    },
    {
      "inputs": [
        {
          "internalType": "address",
          "name": "to",
          "type": "address"
        },
        {
          "internalType": "uint256",
          "name": "tokenId",
          "type": "uint256"
        }
      ],
      "name": "approve",
      "outputs": [],
      "stateMutability": "nonpayable",
      "type": "function"
    },
    {
      "inputs": [
        {
          "internalType": "address",
          "name": "owner",
          "type": "address"
        }
      ],
      "name": "balanceOf",
      "outputs": [
        {
          "internalType": "uint256",
          "name": "",
          "type": "uint256"
        }
      ],
      "stateMutability": "view",
      "type": "function"
    },
    {
      "inputs": [
        {
          "internalType": "uint256",
          "name": "id",
          "type": "uint256"
        }
      ],
      "name": "burn",
      "outputs": [],
      "stateMutability": "nonpayable",
      "type": "function"
    },
    {
      "inputs": [
        {
          "internalType": "uint256",
          "name": "id",
          "type": "uint256"
        },
        {
          "internalType": "uint256",
          "name": "value",
          "type": "uint256"
        }
      ],
      "name": "decreaseDurability",
      "outputs": [],
      "stateMutability": "nonpayable",
      "type": "function"
    },
    {
      "inputs": [
        {
          "internalType": "uint256",
          "name": "tokenId",
          "type": "uint256"
        }
      ],
      "name": "getApproved",
      "outputs": [
        {
          "internalType": "address",
          "name": "",
          "type": "address"
        }
      ],
      "stateMutability": "view",
      "type": "function"
    },
    {
      "inputs": [
        {
          "internalType": "uint256",
          "name": "id",
          "type": "uint256"
        }
      ],
      "name": "getToolProps",
      "outputs": [
        {
          "internalType": "uint8",
          "name": "",
          "type": "uint8"
        },
        {
          "internalType": "uint256",
          "name": "",
          "type": "uint256"
        },
        {
          "internalType": "uint256",
          "name": "",
          "type": "uint256"
        }
      ],
      "stateMutability": "view",
      "type": "function"
    },
    {
      "inputs": [
        {
          "internalType": "address",
          "name": "owner",
          "type": "address"
        },
        {
          "internalType": "address",
          "name": "operator",
          "type": "address"
        }
      ],
      "name": "isApprovedForAll",
      "outputs": [
        {
          "internalType": "bool",
          "name": "",
          "type": "bool"
        }
      ],
      "stateMutability": "view",
      "type": "function"
    },
    {
      "inputs": [
        {
          "internalType": "address",
          "name": "to",
          "type": "address"
        },
        {
          "internalType": "uint8",
          "name": "level",
          "type": "uint8"
        },
        {
          "internalType": "uint256",
          "name": "durabilityMax",
          "type": "uint256"
        }
      ],
      "name": "mintTool",
      "outputs": [
        {
          "internalType": "uint256",
          "name": "",
          "type": "uint256"
        }
      ],
      "stateMutability": "nonpayable",
      "type": "function"
    },
    {
      "inputs": [],
      "name": "name",
      "outputs": [
        {
          "internalType": "string",
          "name": "",
          "type": "string"
        }
      ],
      "stateMutability": "view",
      "type": "function"
    },
    {
      "inputs": [],
      "name": "nextId",
      "outputs": [
        {
          "internalType": "uint256",
          "name": "",
          "type": "uint256"
        }
      ],
      "stateMutability": "view",
      "type": "function"
    },
    {
      "inputs": [],
      "name": "owner",
      "outputs": [
        {
          "internalType": "address",
          "name": "",
          "type": "address"
        }
      ],
      "stateMutability": "view",
      "type": "function"
    },
    {
      "inputs": [
        {
          "internalType": "uint256",
          "name": "tokenId",
          "type": "uint256"
        }
      ],
      "name": "ownerOf",
      "outputs": [
        {
          "internalType": "address",
          "name": "",
          "type": "address"
        }
      ],
      "stateMutability": "view",
      "type": "function"
    },
    {
      "inputs": [],
      "name": "polishingContract",
      "outputs": [
        {
          "internalType": "address",
          "name": "",
          "type": "address"
        }
      ],
      "stateMutability": "view",
      "type": "function"
    },
    {
      "inputs": [],
      "name": "renounceOwnership",
      "outputs": [],
      "stateMutability": "nonpayable",
      "type": "function"
    },
    {
      "inputs": [
        {
          "internalType": "address",
          "name": "from",
          "type": "address"
        },
        {
          "internalType": "address",
          "name": "to",
          "type": "address"
        },
        {
          "internalType": "uint256",
          "name": "tokenId",
          "type": "uint256"
        }
      ],
      "name": "safeTransferFrom",
      "outputs": [],
      "stateMutability": "nonpayable",
      "type": "function"
    },
    {
      "inputs": [
        {
          "internalType": "address",
          "name": "from",
          "type": "address"
        },
        {
          "internalType": "address",
          "name": "to",
          "type": "address"
        },
        {
          "internalType": "uint256",
          "name": "tokenId",
          "type": "uint256"
        },
        {
          "internalType": "bytes",
          "name": "data",
          "type": "bytes"
        }
      ],
      "name": "safeTransferFrom",
      "outputs": [],
      "stateMutability": "nonpayable",
      "type": "function"
    },
    {
      "inputs": [
        {
          "internalType": "address",
          "name": "operator",
          "type": "address"
        },
        {
          "internalType": "bool",
          "name": "approved",
          "type": "bool"
        }
      ],
      "name": "setApprovalForAll",
      "outputs": [],
      "stateMutability": "nonpayable",
      "type": "function"
    },
    {
      "inputs": [
        {
          "internalType": "uint256",
          "name": "id",
          "type": "uint256"
        },
        {
          "internalType": "uint8",
          "name": "newLevel",
          "type": "uint8"
        }
      ],
      "name": "setLevel",
      "outputs": [],
      "stateMutability": "nonpayable",
      "type": "function"
    },
    {
      "inputs": [
        {
          "internalType": "address",
          "name": "_p",
          "type": "address"
        }
      ],
      "name": "setPolishingContract",
      "outputs": [],
      "stateMutability": "nonpayable",
      "type": "function"
    },
    {
      "inputs": [
        {
          "internalType": "bytes4",
          "name": "interfaceId",
          "type": "bytes4"
        }
      ],
      "name": "supportsInterface",
      "outputs": [
        {
          "internalType": "bool",
          "name": "",
          "type": "bool"
        }
      ],
      "stateMutability": "view",
      "type": "function"
    },
    {
      "inputs": [],
      "name": "symbol",
      "outputs": [
        {
          "internalType": "string",
          "name": "",
          "type": "string"
        }
      ],
      "stateMutability": "view",
      "type": "function"
    },
    {
      "inputs": [
        {
          "internalType": "uint256",
          "name": "tokenId",
          "type": "uint256"
        }
      ],
      "name": "tokenURI",
      "outputs": [
        {
          "internalType": "string",
          "name": "",
          "type": "string"
        }
      ],
      "stateMutability": "view",
      "type": "function"
    },
    {
      "inputs": [
        {
          "internalType": "uint256",
          "name": "",
          "type": "uint256"
        }
      ],
      "name": "tools",
      "outputs": [
        {
          "internalType": "uint8",
          "name": "level",
          "type": "uint8"
        },
        {
          "internalType": "uint256",
          "name": "durability",
          "type": "uint256"
        },
        {
          "internalType": "uint256",
          "name": "durabilityMax",
          "type": "uint256"
        }
      ],
      "stateMutability": "view",
      "type": "function"
    },
    {
      "inputs": [
        {
          "internalType": "address",
          "name": "from",
          "type": "address"
        },
        {
          "internalType": "address",
          "name": "to",
          "type": "address"
        },
        {
          "internalType": "uint256",
          "name": "tokenId",
          "type": "uint256"
        }
      ],
      "name": "transferFrom",
      "outputs": [],
      "stateMutability": "nonpayable",
      "type": "function"
    },
    {
      "inputs": [
        {
          "internalType": "address",
          "name": "newOwner",
          "type": "address"
        }
      ],
      "name": "transferOwnership",
      "outputs": [],
      "stateMutability": "nonpayable",
      "type": "function"
    }
  ],
  "bytecode": "0x60806040523461038657604080519081016001600160401b03811182821017610293576040908152600a825269141bdb1a5cda151bdbdb60b21b602083015280519081016001600160401b0381118282101761029357604052600381526214151360ea1b602082015281516001600160401b03811161029357600054600181811c9116801561037c575b602082101461027357601f8111610318575b50602092601f82116001146102b457928192936000926102a9575b50508160011b916000199060031b1c1916176000555b80516001600160401b03811161029357600154600181811c91168015610289575b602082101461027357601f811161020e575b50602091601f82116001146101aa5791819260009261019f575b50508160011b916000199060031b1c1916176001555b33156101895760068054336001600160a01b03198216811790925560405191906001600160a01b03167f8be0079c531659141344cd1fd0a4f28419497f9722a3daafe3b4186f6b6457e0600080a36112cd908161038c8239f35b631e4fbdf760e01b600052600060045260246000fd5b015190503880610119565b601f198216926001600052806000209160005b8581106101f6575083600195106101dd575b505050811b0160015561012f565b015160001960f88460031b161c191690553880806101cf565b919260206001819286850151815501940192016101bd565b60016000527fb10e2d527612073b26eecdfd717e6a320cf44b4afac2b0732d9fcbe2b7fa0cf6601f830160051c81019160208410610269575b601f0160051c01905b81811061025d57506100ff565b60008155600101610250565b9091508190610247565b634e487b7160e01b600052602260045260246000fd5b90607f16906100ed565b634e487b7160e01b600052604160045260246000fd5b0151905038806100b6565b601f1982169360008052806000209160005b86811061030057508360019596106102e7575b505050811b016000556100cc565b015160001960f88460031b161c191690553880806102d9565b919260206001819286850151815501940192016102c6565b600080527f290decd9548b62a8d60345a988386fc84ba6bc95484008f6362f93160ef3e563601f830160051c81019160208410610372575b601f0160051c01905b818110610366575061009b565b60008155600101610359565b9091508190610350565b90607f1690610089565b600080fdfe608080604052600436101561001357600080fd5b600090813560e01c90816301ffc9a714610d855750806306fdde0314610cca578063081812fc14610c8d578063095ea7b314610ba55780630cdcb53514610b3757806323b872dd14610b1f57806342842e0e14610aef57806342966c6814610a095780635a46d4331461071b57806361b8ce8c146106fd5780636352211e146106cc57806370a0823114610679578063715018a61461061c5780638da5cb5b146105f357806390549e541461058457806395d89b4114610477578063a22cb465146103d5578063ab11668e14610390578063b88d4fde146102f1578063bc60c31d14610243578063c87b56dd14610299578063d56de0ad14610243578063d9df959c1461021a578063e985e9c5146101c05763f2fde38b1461013457600080fd5b346101bd5760203660031901126101bd5761014d610e33565b610155611131565b6001600160a01b031680156101a957600680546001600160a01b0319811683179091556001600160a01b03167f8be0079c531659141344cd1fd0a4f28419497f9722a3daafe3b4186f6b6457e0600080a380f35b631e4fbdf760e01b82526004829052602482fd5b80fd5b50346101bd5760403660031901126101bd5760406101dc610e33565b916101e5610e4e565b9260018060a01b031681526005602052209060018060a01b0316600052602052602060ff604060002054166040519015158152f35b50346101bd57806003193601126101bd576009546040516001600160a01b039091168152602090f35b50346101bd5760203660031901126101bd57604090600435815260076020522060ff815416610295600260018401549301546040519384938460409194939260ff606083019616825260208201520152565b0390f35b50346101bd5760203660031901126101bd576102b66004356110fa565b50806040516102c6602082610eae565b52506102956040516102d9602082610eae565b60008152604051918291602083526020830190610df2565b50346101bd5760803660031901126101bd5761030b610e33565b610313610e4e565b6044356064359167ffffffffffffffff831161038c573660238401121561038c578260040135938561034486610ee6565b946103526040519687610eae565b8686523660248883010111610388578661038597602460209301838901378601015261037f838383610f4e565b3361115a565b80f35b5080fd5b8480fd5b50346101bd5760203660031901126101bd576103aa610e33565b6103b2611131565b60018060a01b03166bffffffffffffffffffffffff60a01b600954161760095580f35b50346101bd5760403660031901126101bd576103ef610e33565b60243590811515809203610473576001600160a01b031690811561045f573383526005602052604083208284526020526040832060ff1981541660ff83161790556040519081527f17307eab39ab6107e8899845ad3d59bd9653f200f220920489ca2b5937696c3160203392a380f35b630b61174360e31b83526004829052602483fd5b8280fd5b50346101bd57806003193601126101bd576040519080600154908160011c9160018116801561057a575b6020841081146105665783865290811561053f57506001146104e2575b610295846104ce81860382610eae565b604051918291602083526020830190610df2565b600181527fb10e2d527612073b26eecdfd717e6a320cf44b4afac2b0732d9fcbe2b7fa0cf6939250905b808210610525575090915081016020016104ce826104be565b91926001816020925483858801015201910190929161050c565b60ff191660208087019190915292151560051b850190920192506104ce91508390506104be565b634e487b7160e01b83526022600452602483fd5b92607f16926104a1565b50346101bd5760403660031901126101bd57806024356105af60018060a01b03600954163314610f02565b6004358252600760205260408220600101805490918181106105d15750505580f35b8103925082116105df575580f35b634e487b7160e01b83526011600452602483fd5b50346101bd57806003193601126101bd576006546040516001600160a01b039091168152602090f35b50346101bd57806003193601126101bd57610635611131565b600680546001600160a01b0319811690915581906001600160a01b03167f8be0079c531659141344cd1fd0a4f28419497f9722a3daafe3b4186f6b6457e08280a380f35b50346101bd5760203660031901126101bd576001600160a01b0361069b610e33565b1680156106b8578160409160209352600383522054604051908152f35b6322718ad960e21b82526004829052602482fd5b50346101bd5760203660031901126101bd5760206106eb6004356110fa565b6040516001600160a01b039091168152f35b50346101bd57806003193601126101bd576020600854604051908152f35b50346101bd5760603660031901126101bd57610735610e33565b9061073e610e64565b604435610749611131565b60085460001981146109f55760010180600855604051926060840184811067ffffffffffffffff8211176109e157600293929160ff916040521684526020840190828252604085019283528552600760205260ff80604087209551161660ff1985541617845551600184015551910155600854916020926040516107cd8582610eae565b8381526001600160a01b0383169283156109cd578285526002865260408520546001600160a01b03168015159081610999575b8587526003885260408088208054600101905585885260028952872080546001600160a01b031916871790558486827fddf252ad1be2c89b69c2b068fc378daa952ba7f163c4a11628f55a4df523b3ef8a80a450610985579085913b61086d575b50600854604051908152f35b6108a5926040519384928392630a85bd0160e11b84523360048501528860248501526044840152608060648401526084830190610df2565b038186865af1839181610941575b5061090b57503d15610903573d926108ca84610ee6565b936108d86040519586610eae565b84523d838286013e5b835193846108fd57633250574960e11b84526004839052602484fd5b84925001fd5b6060926108e1565b6001600160e01b03191663757a42ff60e11b0161092e5750503880808381610861565b633250574960e11b825260045260249150fd5b9091508481813d831161097e575b6109598183610eae565b8101031261097a57516001600160e01b03198116810361097a5790386108b3565b8380fd5b503d61094f565b6339e3563760e11b85526004859052602485fd5b600085815260046020526040902080546001600160a01b031916905580875260038852604087208054600019019055610800565b633250574960e11b85526004859052602485fd5b634e487b7160e01b86526041600452602486fd5b634e487b7160e01b84526011600452602484fd5b50346101bd5760203660031901126101bd57600435610a26611131565b808252600260205260408220546001600160a01b03168015908115610aba575b82845260026020526040842080546001600160a01b03191690558284827fddf252ad1be2c89b69c2b068fc378daa952ba7f163c4a11628f55a4df523b3ef8280a450610aa8578152600760205280600260408220828155826001820155015580f35b637e27328960e01b8252600452602490fd5b600083815260046020526040902080546001600160a01b03191690558084526003602052604084208054600019019055610a46565b50346101bd57610385610b0136610e74565b9060405192610b11602085610eae565b85845261037f838383610f4e565b50346101bd57610385610b3136610e74565b91610f4e565b50346101bd5760403660031901126101bd57600435610b54610e64565b610b6960018060a01b03600954163314610f02565b818352600760205260ff60408420911660ff19825416179055808252600760205260026040832001549082526007602052600160408320015580f35b50346101bd5760403660031901126101bd57610bbf610e33565b602435610bcb816110fa565b33151580610c7a575b80610c4f575b610c3c5781906001600160a01b0384811691167f8c5be1e5ebec7d5bd14f71427d1e84f3dd0314c0f7b2291e5b200ac8c7c3b9258680a4825260046020526040822080546001600160a01b0319166001600160a01b0390921691909117905580f35b63a9fbf51f60e01b845233600452602484fd5b506001600160a01b038116845260056020908152604080862033875290915284205460ff1615610bda565b506001600160a01b038116331415610bd4565b50346101bd5760203660031901126101bd57602090600435610cae816110fa565b50815260048252604060018060a01b0391205416604051908152f35b50346101bd57806003193601126101bd5760405190808054908160011c91600181168015610d7b575b6020841081146105665783865290811561053f5750600114610d1f57610295846104ce81860382610eae565b8080527f290decd9548b62a8d60345a988386fc84ba6bc95484008f6362f93160ef3e563939250905b808210610d61575090915081016020016104ce826104be565b919260018160209254838588010152019101909291610d48565b92607f1692610cf3565b9050346103885760203660031901126103885760043563ffffffff60e01b811680910361047357602092506380ac58cd60e01b8114908115610de1575b8115610dd0575b5015158152f35b6301ffc9a760e01b14905038610dc9565b635b5e139f60e01b81149150610dc2565b919082519283825260005b848110610e1e575050826000602080949584010152601f8019910116010190565b80602080928401015182828601015201610dfd565b600435906001600160a01b0382168203610e4957565b600080fd5b602435906001600160a01b0382168203610e4957565b6024359060ff82168203610e4957565b6060906003190112610e49576004356001600160a01b0381168103610e4957906024356001600160a01b0381168103610e49579060443590565b90601f8019910116810190811067ffffffffffffffff821117610ed057604052565b634e487b7160e01b600052604160045260246000fd5b67ffffffffffffffff8111610ed057601f01601f191660200190565b15610f0957565b60405162461bcd60e51b815260206004820152601760248201527f4f6e6c7920706f6c697368696e6720636f6e74726163740000000000000000006044820152606490fd5b6001600160a01b03909116919082156110e4576000828152600260205260408120546001600160a01b031693839185903315158061104c575b507fddf252ad1be2c89b69c2b068fc378daa952ba7f163c4a11628f55a4df523b3ef9082611017575b83815260036020526040812060018154019055848152600260205260408120846bffffffffffffffffffffffff60a01b82541617905580a46001600160a01b0316808303610ffd57505050565b6364283d7b60e01b60005260045260245260445260646000fd5b600085815260046020526040902080546001600160a01b03191690558281526003602052604081208054600019019055610fb0565b915091925080611095575b15611066579084849238610f87565b83908561107f57602491637e27328960e01b8252600452fd5b60449163177e802f60e01b825233600452602452fd5b5033851480156110c3575b806110575750838152600460205260408120546001600160a01b03163314611057565b5084815260056020908152604080832033845290915281205460ff166110a0565b633250574960e11b600052600060045260246000fd5b6000818152600260205260409020546001600160a01b031690811561111d575090565b637e27328960e01b60005260045260246000fd5b6006546001600160a01b0316330361114557565b63118cdaa760e01b6000523360045260246000fd5b823b611168575b5050505050565b604051630a85bd0160e11b81526001600160a01b0391821660048201529181166024830152604482019390935260806064820152911691602090829081906111b4906084830190610df2565b03816000865af18091600091611254575b509061121e57503d15611217573d6111dc81610ee6565b906111ea6040519283610eae565b81523d6000602083013e5b805190816112125782633250574960e11b60005260045260246000fd5b602001fd5b60606111f5565b6001600160e01b03191663757a42ff60e11b0161124057503880808080611161565b633250574960e11b60005260045260246000fd5b6020813d60201161128f575b8161126d60209383610eae565b810103126103885751906001600160e01b0319821682036101bd5750386111c5565b3d915061126056fea2646970667358221220687fbd4309bb2f530f7075c399e23716bad54493f7903a37ac31753337314e1864736f6c634300081c0033",
  "linkReferences": {},
  "deployedLinkReferences": {}
}