{
  "_format": "hh-sol-artifact-1",
  "contractName": "Polishing",
  "sourceName": "contracts/Polishing.sol",
  "abi": [
    {
      "inputs": [
        {
          "internalType": "address",
          "name": "_stone",
          "type": "address"
        },
        {
          "internalType": "address",
          "name": "_tool",
          "type": "address"
        }
      ],
      "stateMutability": "nonpayable",
      "type": "constructor"
    },
    {
      "inputs": [
        {
          "internalType": "address",
          "name": "owner",
          "type": "address"
        }
      ],
      "name": "OwnableInvalidOwner",
      "type": "error"
    },
    {
      "inputs": [
        {
          "internalType": "address",
          "name": "account",
          "type": "address"
        }
      ],
      "name": "OwnableUnauthorizedAccount",
      "type": "error"
    },
    {
      "anonymous": false,
      "inputs": [
        {
          "indexed": true,
          "internalType": "address",
          "name": "previousOwner",
          "type": "address"
        },
        {
          "indexed": true,
          "internalType": "address",
          "name": "newOwner",
          "type": "address"
        }
      ],
      "name": "OwnershipTransferred",
      "type": "event"
    },
    {
      "anonymous": false,
      "inputs": [
        {
          "indexed": true,
          "internalType": "address",
          "name": "user",
          "type": "address"
        },
        {
          "indexed": false,
          "internalType": "uint256",
          "name": "stoneId",
          "type": "uint256"
        },
        {
          "indexed": false,
          "internalType": "uint256",
          "name": "toolId",
          "type": "uint256"
        },
        {
          "indexed": false,
          "internalType": "bool",
          "name": "upgraded",
          "type": "bool"
        },
        {
          "indexed": false,
          "internalType": "uint8",
          "name": "newGrade",
          "type": "uint8"
        }
      ],
      "name": "Polished",
      "type": "event"
    },
    {
      "inputs": [],
      "name": "owner",
      "outputs": [
        {
          "internalType": "address",
          "name": "",
          "type": "address"
        }
      ],
      "stateMutability": "view",
      "type": "function"
    },
    {
      "inputs": [
        {
          "internalType": "uint256",
          "name": "stoneId",
          "type": "uint256"
        },
        {
          "internalType": "uint256",
          "name": "toolId",
          "type": "uint256"
        }
      ],
      "name": "polish",
      "outputs": [],
      "stateMutability": "nonpayable",
      "type": "function"
    },
    {
      "inputs": [],
      "name": "renounceOwnership",
      "outputs": [],
      "stateMutability": "nonpayable",
      "type": "function"
    },
    {
      "inputs": [
        {
          "internalType": "address",
          "name": "_stone",
          "type": "address"
        },
        {
          "internalType": "address",
          "name": "_tool",
          "type": "address"
        }
      ],
      "name": "setContracts",
      "outputs": [],
      "stateMutability": "nonpayable",
      "type": "function"
    },
    {
      "inputs": [],
      "name": "stone",
      "outputs": [
        {
          "internalType": "contract IStoneNFT",
          "name": "",
          "type": "address"
        }
      ],
      "stateMutability": "view",
      "type": "function"
    },
    {
      "inputs": [],
      "name": "tool",
      "outputs": [
        {
          "internalType": "contract IToolNFT",
          "name": "",
          "type": "address"
        }
      ],
      "stateMutability": "view",
      "type": "function"
    },
    {
      "inputs": [
        {
          "internalType": "address",
          "name": "newOwner",
          "type": "address"
        }
      ],
      "name": "transferOwnership",
      "outputs": [],
      "stateMutability": "nonpayable",
      "type": "function"
    }
  ],
  "bytecode": "0x6080346100f257601f610a3f38819003918201601f19168301916001600160401b038311848410176100f75780849260409485528339810103126100f257610052602061004b8361010d565b920161010d565b33156100dc5760008054336001600160a01b0319821681178355604051949290916001600160a01b0316907f8be0079c531659141344cd1fd0a4f28419497f9722a3daafe3b4186f6b6457e09080a3600180546001600160a01b039283166001600160a01b0319918216179091556002805493909216921691909117905561091d90816101228239f35b631e4fbdf760e01b600052600060045260246000fd5b600080fd5b634e487b7160e01b600052604160045260246000fd5b51906001600160a01b03821682036100f25756fe608080604052600436101561001357600080fd5b600090813560e01c9081630167eb851461081957508063715018a6146107bf5780637d8521f3146101bd5780638da5cb5b14610196578063d8952a491461011f578063d9a969f8146100f65763f2fde38b1461006e57600080fd5b346100f35760203660031901126100f35761008761083e565b61008f6108be565b6001600160a01b031680156100df5781546001600160a01b03198116821783556001600160a01b03167f8be0079c531659141344cd1fd0a4f28419497f9722a3daafe3b4186f6b6457e08380a380f35b631e4fbdf760e01b82526004829052602482fd5b80fd5b50346100f357806003193601126100f3576002546040516001600160a01b039091168152602090f35b50346100f35760403660031901126100f35761013961083e565b6024356001600160a01b0381169190829003610192576101576108be565b60018060a01b03166bffffffffffffffffffffffff60a01b60015416176001556bffffffffffffffffffffffff60a01b600254161760025580f35b8280fd5b50346100f357806003193601126100f357546040516001600160a01b039091168152602090f35b50346100f35760403660031901126100f35760043560243560018060a01b03600154166040516331a9108f60e11b8152836004820152602081602481855afa9081156107b4578591610795575b50336001600160a01b039091160361075e576002546040516331a9108f60e11b8152600481018490526001600160a01b0390911690602081602481855afa9081156106ee57869161072f575b50336001600160a01b03909116036106f95760405163c8f3d54f60e01b815260048101859052608081602481865afa9081156106ee57869187918891610696575b506060602493946040519485809263d56de0ad60e01b82528a60048301525afa91821561053a5788938993610650575b50101561061457156105d65760ff169081600403600481116105c25780600a02600a810482036105a65780156105ba575b816005029160058304036105a657811561059d575b60ff83169384610575576032905b60058102908082046005149015171561056157810180911161054d57889190605f8111610545575b606460405160208101904282523360601b60408201528b60548201528a60748201524460948201526094815261037a60b482610859565b519020061095803b156101925760448392604051948593849263772d662960e11b84528d600485015260248401525af1801561053a57610522575b50600254879392916001600160a01b0390911690813b156104ba578491604483926040519788938492632415279560e21b84528c600485015260248401525af19384156105155785946104f6575b50509261044e575b5060ff92604051948552602085015260408401521660608201527fdf04a41135600095a1135d0a04c3608190d33a8c5ad197ed3becb39695fb963860803392a280f35b600381106104cd575b5060015485906001600160a01b0316803b156104c957818091604460405180948193630dcd637960e31b83528b600484015260ff8a1660248401525af180156104be576104a5575b5061040b565b816104af91610859565b6104ba57843861049f565b8480fd5b6040513d84823e3d90fd5b5080fd5b60019192500160ff81116104e2579038610457565b634e487b7160e01b85526011600452602485fd5b819294509061050491610859565b6105115782918638610403565b8580fd5b50604051903d90823e3d90fd5b87610531919892949398610859565b959091386103b5565b6040513d8a823e3d90fd5b50605f610343565b634e487b7160e01b89526011600452602489fd5b634e487b7160e01b8a52601160045260248afd5b6001850361058557601e9061031b565b6002850361059557600f9061031b565b60059061031b565b6001915061030d565b634e487b7160e01b88526011600452602488fd5b5060016102f8565b634e487b7160e01b87526011600452602487fd5b60405162461bcd60e51b8152602060048201526016602482015275546f6f6c20686173206e6f206475726162696c69747960501b6044820152606490fd5b60405162461bcd60e51b815260206004820152601460248201527353746f6e65206e6f7420706f6c69736861626c6560601b6044820152606490fd5b935091506060833d60601161068e575b8161066d60609383610859565b8101031261068a576020610680846108b0565b93015191386102c7565b8780fd5b3d9150610660565b925050506080813d6080116106e6575b816106b360809383610859565b81010312610511576106c4816108b0565b90602081015192606060408301519201518015150361068a5792906060610297565b3d91506106a6565b6040513d88823e3d90fd5b60405162461bcd60e51b815260206004820152600e60248201526d2737ba103a37b7b61037bbb732b960911b6044820152606490fd5b610751915060203d602011610757575b6107498183610859565b810190610891565b38610256565b503d61073f565b60405162461bcd60e51b815260206004820152600f60248201526e2737ba1039ba37b7329037bbb732b960891b6044820152606490fd5b6107ae915060203d602011610757576107498183610859565b3861020a565b6040513d87823e3d90fd5b50346100f357806003193601126100f3576107d86108be565b80546001600160a01b03198116825581906001600160a01b03167f8be0079c531659141344cd1fd0a4f28419497f9722a3daafe3b4186f6b6457e08280a380f35b9050346104c957816003193601126104c9576001546001600160a01b03168152602090f35b600435906001600160a01b038216820361085457565b600080fd5b90601f8019910116810190811067ffffffffffffffff82111761087b57604052565b634e487b7160e01b600052604160045260246000fd5b9081602091031261085457516001600160a01b03811681036108545790565b519060ff8216820361085457565b6000546001600160a01b031633036108d257565b63118cdaa760e01b6000523360045260246000fdfea26469706673582212207baa984ef3f878e8b038f606e3526bd7df49495fb04ac15b12384c8a8a5c076e64736f6c634300081c0033",
  "linkReferences": {},
  "deployedLinkReferences": {}
}