{
  "_format": "hh-sol-artifact-1",
  "contractName": "Market",
  "sourceName": "contracts/Market.sol",
  "abi": [
    {
      "inputs": [
        {
          "internalType": "address",
          "name": "_stone",
          "type": "address"
        },
        {
          "internalType": "address",
          "name": "_tool",
          "type": "address"
        },
        {
          "internalType": "address",
          "name": "_token",
          "type": "address"
        }
      ],
      "stateMutability": "nonpayable",
      "type": "constructor"
    },
    {
      "inputs": [
        {
          "internalType": "address",
          "name": "owner",
          "type": "address"
        }
      ],
      "name": "OwnableInvalidOwner",
      "type": "error"
    },
    {
      "inputs": [
        {
          "internalType": "address",
          "name": "account",
          "type": "address"
        }
      ],
      "name": "OwnableUnauthorizedAccount",
      "type": "error"
    },
    {
      "anonymous": false,
      "inputs": [
        {
          "indexed": true,
          "internalType": "address",
          "name": "seller",
          "type": "address"
        },
        {
          "indexed": false,
          "internalType": "bool",
          "name": "isStone",
          "type": "bool"
        },
        {
          "indexed": false,
          "internalType": "uint256",
          "name": "tokenId",
          "type": "uint256"
        }
      ],
      "name": "Delisted",
      "type": "event"
    },
    {
      "anonymous": false,
      "inputs": [
        {
          "indexed": true,
          "internalType": "address",
          "name": "seller",
          "type": "address"
        },
        {
          "indexed": false,
          "internalType": "bool",
          "name": "isStone",
          "type": "bool"
        },
        {
          "indexed": false,
          "internalType": "uint256",
          "name": "tokenId",
          "type": "uint256"
        },
        {
          "indexed": false,
          "internalType": "uint256",
          "name": "price",
          "type": "uint256"
        }
      ],
      "name": "Listed",
      "type": "event"
    },
    {
      "anonymous": false,
      "inputs": [
        {
          "indexed": true,
          "internalType": "address",
          "name": "previousOwner",
          "type": "address"
        },
        {
          "indexed": true,
          "internalType": "address",
          "name": "newOwner",
          "type": "address"
        }
      ],
      "name": "OwnershipTransferred",
      "type": "event"
    },
    {
      "anonymous": false,
      "inputs": [
        {
          "indexed": true,
          "internalType": "address",
          "name": "buyer",
          "type": "address"
        },
        {
          "indexed": true,
          "internalType": "address",
          "name": "seller",
          "type": "address"
        },
        {
          "indexed": false,
          "internalType": "bool",
          "name": "isStone",
          "type": "bool"
        },
        {
          "indexed": false,
          "internalType": "uint256",
          "name": "tokenId",
          "type": "uint256"
        },
        {
          "indexed": false,
          "internalType": "uint256",
          "name": "price",
          "type": "uint256"
        }
      ],
      "name": "Sold",
      "type": "event"
    },
    {
      "inputs": [
        {
          "internalType": "bool",
          "name": "_isStone",
          "type": "bool"
        },
        {
          "internalType": "uint256",
          "name": "tokenId",
          "type": "uint256"
        }
      ],
      "name": "buy",
      "outputs": [],
      "stateMutability": "nonpayable",
      "type": "function"
    },
    {
      "inputs": [
        {
          "internalType": "bool",
          "name": "_isStone",
          "type": "bool"
        },
        {
          "internalType": "uint256",
          "name": "tokenId",
          "type": "uint256"
        }
      ],
      "name": "delist",
      "outputs": [],
      "stateMutability": "nonpayable",
      "type": "function"
    },
    {
      "inputs": [
        {
          "internalType": "bytes32",
          "name": "",
          "type": "bytes32"
        }
      ],
      "name": "isStone",
      "outputs": [
        {
          "internalType": "bool",
          "name": "",
          "type": "bool"
        }
      ],
      "stateMutability": "view",
      "type": "function"
    },
    {
      "inputs": [
        {
          "internalType": "bool",
          "name": "_isStone",
          "type": "bool"
        },
        {
          "internalType": "uint256",
          "name": "tokenId",
          "type": "uint256"
        },
        {
          "internalType": "uint256",
          "name": "price",
          "type": "uint256"
        }
      ],
      "name": "list",
      "outputs": [],
      "stateMutability": "nonpayable",
      "type": "function"
    },
    {
      "inputs": [
        {
          "internalType": "bytes32",
          "name": "",
          "type": "bytes32"
        }
      ],
      "name": "listings",
      "outputs": [
        {
          "internalType": "address",
          "name": "seller",
          "type": "address"
        },
        {
          "internalType": "uint256",
          "name": "price",
          "type": "uint256"
        },
        {
          "internalType": "bool",
          "name": "active",
          "type": "bool"
        }
      ],
      "stateMutability": "view",
      "type": "function"
    },
    {
      "inputs": [],
      "name": "owner",
      "outputs": [
        {
          "internalType": "address",
          "name": "",
          "type": "address"
        }
      ],
      "stateMutability": "view",
      "type": "function"
    },
    {
      "inputs": [],
      "name": "renounceOwnership",
      "outputs": [],
      "stateMutability": "nonpayable",
      "type": "function"
    },
    {
      "inputs": [],
      "name": "stone",
      "outputs": [
        {
          "internalType": "contract IERC721",
          "name": "",
          "type": "address"
        }
      ],
      "stateMutability": "view",
      "type": "function"
    },
    {
      "inputs": [],
      "name": "token",
      "outputs": [
        {
          "internalType": "contract IERC20",
          "name": "",
          "type": "address"
        }
      ],
      "stateMutability": "view",
      "type": "function"
    },
    {
      "inputs": [],
      "name": "tool",
      "outputs": [
        {
          "internalType": "contract IERC721",
          "name": "",
          "type": "address"
        }
      ],
      "stateMutability": "view",
      "type": "function"
    },
    {
      "inputs": [
        {
          "internalType": "address",
          "name": "newOwner",
          "type": "address"
        }
      ],
      "name": "transferOwnership",
      "outputs": [],
      "stateMutability": "nonpayable",
      "type": "function"
    }
  ],
  "bytecode": "0x60803461011057601f610a4a38819003918201601f19168301916001600160401b0383118484101761011557808492606094604052833981010312610110576100478161012b565b9061006060406100596020840161012b565b920161012b565b9033156100fa5760008054336001600160a01b0319821681178355604051959290916001600160a01b0316907f8be0079c531659141344cd1fd0a4f28419497f9722a3daafe3b4186f6b6457e09080a3600180546001600160a01b03199081166001600160a01b03938416179091556002805482169383169390931790925560038054909216921691909117905561090a90816101408239f35b631e4fbdf760e01b600052600060045260246000fd5b600080fd5b634e487b7160e01b600052604160045260246000fd5b51906001600160a01b03821682036101105756fe608080604052600436101561001357600080fd5b600090813560e01c9081620a973f1461078c575080630167eb8514610763578063715018a6146107095780638da5cb5b146106e2578063c18b8db414610693578063d9a969f81461066a578063e24c469b146103fc578063e74325b614610181578063eb83aa7314610152578063f2fde38b146100c45763fc0c546a1461009957600080fd5b346100c157806003193601126100c1576003546040516001600160a01b039091168152602090f35b80fd5b50346100c15760203660031901126100c1576004356001600160a01b0381169081900361014e576100f36108ab565b801561013a5781546001600160a01b03198116821783556001600160a01b03167f8be0079c531659141344cd1fd0a4f28419497f9722a3daafe3b4186f6b6457e08380a380f35b631e4fbdf760e01b82526004829052602482fd5b5080fd5b50346100c15760203660031901126100c15760ff60406020926004358152600584522054166040519015158152f35b50346100c15760603660031901126100c15761019b61085f565b602435919060443581156103e5576001546024906020906001600160a01b03165b6040516331a9108f60e11b81526004810188905292839182906001600160a01b03165afa9081156103da578491610394575b50336001600160a01b039091160361036357801561032e5760405182151560f81b60208201908152602182018690529061023581604181015b03601f198101835282610873565b51902093604051946060860186811067ffffffffffffffff82111761031a577ffa94305fc9fca3f2ec76870748ea4ee964151506e2d0c4de74efe53d38cab1af9495966102dd91604052338152600260208201868152604083019060018252858b52600460205260408b209360018060a01b039051166bffffffffffffffffffffffff60a01b85541617845551600184015551151591019060ff801983541691151516179055565b855260056020526102fd84604087209060ff801983541691151516179055565b60408051941515855260208501919091528301523391606090a280f35b634e487b7160e01b86526041600452602486fd5b60405162461bcd60e51b815260206004820152600d60248201526c496e76616c696420707269636560981b6044820152606490fd5b60405162461bcd60e51b81526020600482015260096024820152682737ba1037bbb732b960b91b6044820152606490fd5b90506020813d6020116103d2575b816103af60209383610873565b810103126103ce57516001600160a01b03811681036103ce57386101ee565b8380fd5b3d91506103a2565b6040513d86823e3d90fd5b6002546024906020906001600160a01b03166101bc565b50346100c15760403660031901126100c15761041661085f565b60405181151560f81b6020820190815260243560218301819052929161043f8160418101610227565b519020835260046020526040832091600283019081549160ff83161561063857845460019095015460ff199390931690556003546040516323b872dd60e01b81523360048201526001600160a01b039586166024820181905260448201859052959091602091839160649183918b91165af19081156105a05786916105fd575b50156105c05782156105af576001546001600160a01b03165b6001600160a01b0316803b156105ab576040516323b872dd60e01b81526001600160a01b0386166004820152336024820152604481018390529086908290606490829084905af180156105a05761056a575b50604080519315158452602084019190915282015233907fb1e24ca7747997b066db09796d732589221718ef829643d80d1f1b469f1e110090606090a380f35b94610598817fb1e24ca7747997b066db09796d732589221718ef829643d80d1f1b469f1e1100949397610873565b94909161052a565b6040513d88823e3d90fd5b8580fd5b6002546001600160a01b03166104d8565b60405162461bcd60e51b8152602060048201526015602482015274151bdad95b881d1c985b9cd9995c8819985a5b1959605a1b6044820152606490fd5b90506020813d602011610630575b8161061860209383610873565b810103126105ab575180151581036105ab57386104bf565b3d915061060b565b60405162461bcd60e51b815260206004820152600a602482015269139bdd081b1a5cdd195960b21b6044820152606490fd5b50346100c157806003193601126100c1576002546040516001600160a01b039091168152602090f35b50346100c15760203660031901126100c1576040606091600435815260046020522060018060a01b038154169060ff600260018301549201541690604051928352602083015215156040820152f35b50346100c157806003193601126100c157546040516001600160a01b039091168152602090f35b50346100c157806003193601126100c1576107226108ab565b80546001600160a01b03198116825581906001600160a01b03167f8be0079c531659141344cd1fd0a4f28419497f9722a3daafe3b4186f6b6457e08280a380f35b50346100c157806003193601126100c1576001546040516001600160a01b039091168152602090f35b90503461014e57604036600319011261014e576107a761085f565b80151560f81b602083019081526024356021840181905291926107cd8160418101610227565b519020835260046020526040832080546001600160a01b0316330361082d5760020160ff198154169055604051911515825260208201527fa4e20b0e34a289dde52137f4299574e17bc7fae3a139c9dbaed3ef299e8c496c60403392a280f35b60405162461bcd60e51b815260206004820152600a6024820152692737ba1039b2b63632b960b11b6044820152606490fd5b60043590811515820361086e57565b600080fd5b90601f8019910116810190811067ffffffffffffffff82111761089557604052565b634e487b7160e01b600052604160045260246000fd5b6000546001600160a01b031633036108bf57565b63118cdaa760e01b6000523360045260246000fdfea264697066735822122092866307da20769270a95825587d0a4364e66d3e952d351799b722655102308964736f6c634300081c0033",
  "linkReferences": {},
  "deployedLinkReferences": {}
}